{
  "contractName": "Election",
  "abi": [
    {
      "constant": true,
      "inputs": [
        {
          "name": "",
          "type": "uint256"
        }
      ],
      "name": "proposals",
      "outputs": [
        {
          "name": "name",
          "type": "string"
        },
        {
          "name": "voteCount",
          "type": "uint256"
        }
      ],
      "payable": false,
      "stateMutability": "view",
      "type": "function"
    },
    {
      "constant": true,
      "inputs": [],
      "name": "numberProposal",
      "outputs": [
        {
          "name": "",
          "type": "uint256"
        }
      ],
      "payable": false,
      "stateMutability": "view",
      "type": "function"
    },
    {
      "constant": true,
      "inputs": [],
      "name": "isVoting",
      "outputs": [
        {
          "name": "",
          "type": "bool"
        }
      ],
      "payable": false,
      "stateMutability": "view",
      "type": "function"
    },
    {
      "constant": true,
      "inputs": [],
      "name": "chairperson",
      "outputs": [
        {
          "name": "",
          "type": "address"
        }
      ],
      "payable": false,
      "stateMutability": "view",
      "type": "function"
    },
    {
      "constant": true,
      "inputs": [
        {
          "name": "",
          "type": "uint256"
        }
      ],
      "name": "ballots",
      "outputs": [
        {
          "name": "voted",
          "type": "bool"
        }
      ],
      "payable": false,
      "stateMutability": "view",
      "type": "function"
    },
    {
      "constant": true,
      "inputs": [
        {
          "name": "",
          "type": "uint256"
        }
      ],
      "name": "winners",
      "outputs": [
        {
          "name": "name",
          "type": "string"
        },
        {
          "name": "voteCount",
          "type": "uint256"
        }
      ],
      "payable": false,
      "stateMutability": "view",
      "type": "function"
    },
    {
      "constant": true,
      "inputs": [
        {
          "name": "",
          "type": "address"
        }
      ],
      "name": "voters",
      "outputs": [
        {
          "name": "",
          "type": "uint256"
        }
      ],
      "payable": false,
      "stateMutability": "view",
      "type": "function"
    },
    {
      "constant": true,
      "inputs": [
        {
          "name": "",
          "type": "uint256"
        }
      ],
      "name": "voterArray",
      "outputs": [
        {
          "name": "weight",
          "type": "uint256"
        },
        {
          "name": "addr",
          "type": "address"
        },
        {
          "name": "delegate",
          "type": "address"
        }
      ],
      "payable": false,
      "stateMutability": "view",
      "type": "function"
    },
    {
      "inputs": [],
      "payable": false,
      "stateMutability": "nonpayable",
      "type": "constructor"
    },
    {
      "constant": false,
      "inputs": [
        {
          "name": "proposalInBallot",
          "type": "uint256"
        }
      ],
      "name": "start",
      "outputs": [],
      "payable": false,
      "stateMutability": "nonpayable",
      "type": "function"
    },
    {
      "constant": false,
      "inputs": [],
      "name": "end",
      "outputs": [],
      "payable": false,
      "stateMutability": "nonpayable",
      "type": "function"
    },
    {
      "constant": false,
      "inputs": [
        {
          "name": "to",
          "type": "address"
        }
      ],
      "name": "delegate",
      "outputs": [],
      "payable": false,
      "stateMutability": "nonpayable",
      "type": "function"
    },
    {
      "constant": false,
      "inputs": [
        {
          "name": "array",
          "type": "uint256[]"
        },
        {
          "name": "ballotToVote",
          "type": "uint256"
        }
      ],
      "name": "vote",
      "outputs": [],
      "payable": false,
      "stateMutability": "nonpayable",
      "type": "function"
    },
    {
      "constant": true,
      "inputs": [],
      "name": "getRemainBallot",
      "outputs": [
        {
          "name": "",
          "type": "uint256"
        }
      ],
      "payable": false,
      "stateMutability": "view",
      "type": "function"
    },
    {
      "constant": false,
      "inputs": [
        {
          "name": "addresses",
          "type": "address[]"
        }
      ],
      "name": "setVoter",
      "outputs": [],
      "payable": false,
      "stateMutability": "nonpayable",
      "type": "function"
    },
    {
      "constant": false,
      "inputs": [
        {
          "name": "names",
          "type": "string[]"
        }
      ],
      "name": "setProposal",
      "outputs": [],
      "payable": false,
      "stateMutability": "nonpayable",
      "type": "function"
    },
    {
      "constant": true,
      "inputs": [],
      "name": "getProposal",
      "outputs": [
        {
          "components": [
            {
              "name": "name",
              "type": "string"
            },
            {
              "name": "voteCount",
              "type": "uint256"
            }
          ],
          "name": "",
          "type": "tuple[]"
        }
      ],
      "payable": false,
      "stateMutability": "view",
      "type": "function"
    },
    {
      "constant": true,
      "inputs": [],
      "name": "getVoters",
      "outputs": [
        {
          "components": [
            {
              "name": "weight",
              "type": "uint256"
            },
            {
              "name": "addr",
              "type": "address"
            },
            {
              "name": "delegate",
              "type": "address"
            },
            {
              "name": "ballots",
              "type": "uint256[]"
            }
          ],
          "name": "",
          "type": "tuple[]"
        }
      ],
      "payable": false,
      "stateMutability": "view",
      "type": "function"
    },
    {
      "constant": true,
      "inputs": [],
      "name": "getMyselfVoter",
      "outputs": [
        {
          "components": [
            {
              "name": "weight",
              "type": "uint256"
            },
            {
              "name": "addr",
              "type": "address"
            },
            {
              "name": "delegate",
              "type": "address"
            },
            {
              "name": "ballots",
              "type": "uint256[]"
            }
          ],
          "name": "",
          "type": "tuple"
        }
      ],
      "payable": false,
      "stateMutability": "view",
      "type": "function"
    },
    {
      "constant": true,
      "inputs": [],
      "name": "getBallots",
      "outputs": [
        {
          "components": [
            {
              "name": "voted",
              "type": "bool"
            },
            {
              "name": "voters",
              "type": "uint256[]"
            }
          ],
          "name": "",
          "type": "tuple[]"
        }
      ],
      "payable": false,
      "stateMutability": "view",
      "type": "function"
    },
    {
      "constant": true,
      "inputs": [],
      "name": "getWinner",
      "outputs": [
        {
          "components": [
            {
              "name": "name",
              "type": "string"
            },
            {
              "name": "voteCount",
              "type": "uint256"
            }
          ],
          "name": "",
          "type": "tuple[]"
        }
      ],
      "payable": false,
      "stateMutability": "view",
      "type": "function"
    }
  ],
  "bytecode": "0x608060405260016000556000600160006101000a81548160ff0219169083151502179055503480156200003157600080fd5b50336001806101000a81548173ffffffffffffffffffffffffffffffffffffffff021916908373ffffffffffffffffffffffffffffffffffffffff160217905550600260806040519081016040528060008152602001600073ffffffffffffffffffffffffffffffffffffffff168152602001600073ffffffffffffffffffffffffffffffffffffffff1681526020016000604051908082528060200260200182016040528015620000f25781602001602082028038833980820191505090505b50815250908060018154018082558091505090600182039060005260206000209060040201600090919290919091506000820151816000015560208201518160010160006101000a81548173ffffffffffffffffffffffffffffffffffffffff021916908373ffffffffffffffffffffffffffffffffffffffff16021790555060408201518160020160006101000a81548173ffffffffffffffffffffffffffffffffffffffff021916908373ffffffffffffffffffffffffffffffffffffffff1602179055506060820151816003019080519060200190620001d7929190620001e1565b505050506200025b565b82805482825590600052602060002090810192821562000220579160200282015b828111156200021f57825182559160200191906001019062000202565b5b5090506200022f919062000233565b5090565b6200025891905b80821115620002545760008160009055506001016200023a565b5090565b90565b6131ef806200026b6000396000f3fe608060405260043610610112576000357c0100000000000000000000000000000000000000000000000000000000900463ffffffff168063013cf08b146101175780630f01ae57146101555780631bbef399146101805780631e48ec05146101ab5780632e4176cf146101d45780634cfdfee2146101ff5780634d93768f1461022a5780635c19a95c146102555780635c632b381461027e5780638e7ea5b2146102bb57806395805dad146102e6578063a2fb11751461030f578063a3ec138d1461034d578063b9e2bea01461038a578063c279919f146103b5578063cdd72253146103f4578063d8c7c6381461041f578063eb87c6dc14610448578063efbe1c1c14610473578063f429af191461048a575b600080fd5b34801561012357600080fd5b5061013e6004803603610139919081019061272b565b6104b3565b60405161014c929190612daa565b60405180910390f35b34801561016157600080fd5b5061016a61057e565b6040516101779190612f3c565b60405180910390f35b34801561018c57600080fd5b50610195610584565b6040516101a29190612d8f565b60405180910390f35b3480156101b757600080fd5b506101d260048036036101cd9190810190612655565b610597565b005b3480156101e057600080fd5b506101e9610832565b6040516101f69190612d0e565b60405180910390f35b34801561020b57600080fd5b50610214610857565b6040516102219190612f1a565b60405180910390f35b34801561023657600080fd5b5061023f6109da565b60405161024c9190612f3c565b60405180910390f35b34801561026157600080fd5b5061027c6004803603610277919081019061262c565b610ac3565b005b34801561028a57600080fd5b506102a560048036036102a0919081019061272b565b610ee1565b6040516102b29190612d8f565b60405180910390f35b3480156102c757600080fd5b506102d0610f1b565b6040516102dd9190612d4b565b60405180910390f35b3480156102f257600080fd5b5061030d6004803603610308919081019061272b565b611026565b005b34801561031b57600080fd5b506103366004803603610331919081019061272b565b611451565b604051610344929190612daa565b60405180910390f35b34801561035957600080fd5b50610374600480360361036f919081019061262c565b61151c565b6040516103819190612f3c565b60405180910390f35b34801561039657600080fd5b5061039f611534565b6040516103ac9190612d4b565b60405180910390f35b3480156103c157600080fd5b506103dc60048036036103d7919081019061272b565b61163f565b6040516103eb93929190612f57565b60405180910390f35b34801561040057600080fd5b506104096116b8565b6040516104169190612d6d565b60405180910390f35b34801561042b57600080fd5b5061044660048036036104419190810190612696565b611826565b005b34801561045457600080fd5b5061045d61196b565b60405161046a9190612d29565b60405180910390f35b34801561047f57600080fd5b50610488611a3d565b005b34801561049657600080fd5b506104b160048036036104ac91908101906126d7565b611c19565b005b6005818154811015156104c257fe5b9060005260206000209060020201600091509050806000018054600181600116156101000203166002900480601f01602080910402602001604051908101604052809291908181526020018280546001816001161561010002031660029004801561056e5780601f106105435761010080835404028352916020019161056e565b820191906000526020600020905b81548152906001019060200180831161055157829003601f168201915b5050505050908060010154905082565b60005481565b600160009054906101000a900460ff1681565b6001809054906101000a900473ffffffffffffffffffffffffffffffffffffffff1673ffffffffffffffffffffffffffffffffffffffff163373ffffffffffffffffffffffffffffffffffffffff16141515610628576040517f08c379a000000000000000000000000000000000000000000000000000000000815260040161061f90612e3a565b60405180910390fd5b60016002816106379190611fe9565b5060008090505b815181101561082e57600260806040519081016040528060008152602001848481518110151561066a57fe5b9060200190602002015173ffffffffffffffffffffffffffffffffffffffff168152602001600073ffffffffffffffffffffffffffffffffffffffff16815260200160006040519080825280602002602001820160405280156106dc5781602001602082028038833980820191505090505b50815250908060018154018082558091505090600182039060005260206000209060040201600090919290919091506000820151816000015560208201518160010160006101000a81548173ffffffffffffffffffffffffffffffffffffffff021916908373ffffffffffffffffffffffffffffffffffffffff16021790555060408201518160020160006101000a81548173ffffffffffffffffffffffffffffffffffffffff021916908373ffffffffffffffffffffffffffffffffffffffff16021790555060608201518160030190805190602001906107bf92919061201b565b50505050600181016003600084848151811015156107d957fe5b9060200190602002015173ffffffffffffffffffffffffffffffffffffffff1673ffffffffffffffffffffffffffffffffffffffff16815260200190815260200160002081905550808060010191505061063e565b5050565b6001809054906101000a900473ffffffffffffffffffffffffffffffffffffffff1681565b61085f612068565b6002600360003373ffffffffffffffffffffffffffffffffffffffff1673ffffffffffffffffffffffffffffffffffffffff168152602001908152602001600020548154811015156108ad57fe5b906000526020600020906004020160806040519081016040529081600082015481526020016001820160009054906101000a900473ffffffffffffffffffffffffffffffffffffffff1673ffffffffffffffffffffffffffffffffffffffff1673ffffffffffffffffffffffffffffffffffffffff1681526020016002820160009054906101000a900473ffffffffffffffffffffffffffffffffffffffff1673ffffffffffffffffffffffffffffffffffffffff1673ffffffffffffffffffffffffffffffffffffffff168152602001600382018054806020026020016040519081016040528092919081815260200182805480156109cc57602002820191906000526020600020905b8154815260200190600101908083116109b8575b505050505081525050905090565b6000806002600360003373ffffffffffffffffffffffffffffffffffffffff1673ffffffffffffffffffffffffffffffffffffffff16815260200190815260200160002054815481101515610a2b57fe5b90600052602060002090600402019050600080905060008090505b8260030180549050811015610aba5760048360030182815481101515610a6857fe5b9060005260206000200154815481101515610a7f57fe5b906000526020600020906002020160000160009054906101000a900460ff161515610aad5781806001019250505b8080600101915050610a46565b50809250505090565b60006002600360003373ffffffffffffffffffffffffffffffffffffffff1673ffffffffffffffffffffffffffffffffffffffff16815260200190815260200160002054815481101515610b1357fe5b906000526020600020906004020190503373ffffffffffffffffffffffffffffffffffffffff168273ffffffffffffffffffffffffffffffffffffffff1614151515610b94576040517f08c379a0000000000000000000000000000000000000000000000000000000008152600401610b8b90612efa565b60405180910390fd5b5b600073ffffffffffffffffffffffffffffffffffffffff166002600360008573ffffffffffffffffffffffffffffffffffffffff1673ffffffffffffffffffffffffffffffffffffffff16815260200190815260200160002054815481101515610bfb57fe5b906000526020600020906004020160020160009054906101000a900473ffffffffffffffffffffffffffffffffffffffff1673ffffffffffffffffffffffffffffffffffffffff16141515610d42576002600360008473ffffffffffffffffffffffffffffffffffffffff1673ffffffffffffffffffffffffffffffffffffffff16815260200190815260200160002054815481101515610c9857fe5b906000526020600020906004020160020160009054906101000a900473ffffffffffffffffffffffffffffffffffffffff1691503373ffffffffffffffffffffffffffffffffffffffff168273ffffffffffffffffffffffffffffffffffffffff1614151515610d3d576040517f08c379a0000000000000000000000000000000000000000000000000000000008152600401610d3490612e9a565b60405180910390fd5b610b95565b818160020160006101000a81548173ffffffffffffffffffffffffffffffffffffffff021916908373ffffffffffffffffffffffffffffffffffffffff16021790555060006002600360008573ffffffffffffffffffffffffffffffffffffffff1673ffffffffffffffffffffffffffffffffffffffff16815260200190815260200160002054815481101515610dd557fe5b9060005260206000209060040201905060008090505b8260030180549050811015610edb57600080905060008090505b8360030180549050811015610e68578360030181815481101515610e2557fe5b90600052602060002001548560030184815481101515610e4157fe5b90600052602060002001541415610e5b5760019150610e68565b8080600101915050610e05565b50801515610ecd5760018360000160008282540192505081905550826003018460030183815481101515610e9857fe5b906000526020600020015490806001815401808255809150509060018203906000526020600020016000909192909190915055505b508080600101915050610deb565b50505050565b600481815481101515610ef057fe5b90600052602060002090600202016000915090508060000160009054906101000a900460ff16905081565b60606006805480602002602001604051908101604052809291908181526020016000905b8282101561101d5783829060005260206000209060020201604080519081016040529081600082018054600181600116156101000203166002900480601f016020809104026020016040519081016040528092919081815260200182805460018160011615610100020316600290048015610ffb5780601f10610fd057610100808354040283529160200191610ffb565b820191906000526020600020905b815481529060010190602001808311610fde57829003601f168201915b5050505050815260200160018201548152505081526020019060010190610f3f565b50505050905090565b6005805490508110151561106f576040517f08c379a000000000000000000000000000000000000000000000000000000000815260040161106690612e1a565b60405180910390fd5b60016005805490501115156110b9576040517f08c379a00000000000000000000000000000000000000000000000000000000081526004016110b090612eda565b60405180910390fd5b600460028054905010151515611104576040517f08c379a00000000000000000000000000000000000000000000000000000000081526004016110fb90612e5a565b60405180910390fd5b6001809054906101000a900473ffffffffffffffffffffffffffffffffffffffff1673ffffffffffffffffffffffffffffffffffffffff163373ffffffffffffffffffffffffffffffffffffffff16141515611195576040517f08c379a000000000000000000000000000000000000000000000000000000000815260040161118c90612e3a565b60405180910390fd5b60001515600160009054906101000a900460ff1615151415156111ed576040517f08c379a00000000000000000000000000000000000000000000000000000000081526004016111e490612dfa565b60405180910390fd5b60018060006101000a81548160ff021916908315150217905550600060068161121691906120bd565b50600060048161122691906120ef565b50806000819055506000600190505b600280549050811015611405576004604080519081016040528060001515815260200160006040519080825280602002602001820160405280156112885781602001602082028038833980820191505090505b508152509080600181540180825580915050906001820390600052602060002090600202016000909192909190915060008201518160000160006101000a81548160ff02191690831515021790555060208201518160010190805190602001906112f392919061201b565b50505050600060028281548110151561130857fe5b9060005260206000209060040201600301816113249190612121565b5060028181548110151561133457fe5b9060005260206000209060040201600301600182039080600181540180825580915050906001820390600052602060002001600090919290919091505550600160028281548110151561138357fe5b90600052602060002090600402016000018190555060006002828154811015156113a957fe5b906000526020600020906004020160020160006101000a81548173ffffffffffffffffffffffffffffffffffffffff021916908373ffffffffffffffffffffffffffffffffffffffff1602179055508080600101915050611235565b506000600190505b60058054905081101561144d57600060058281548110151561142b57fe5b906000526020600020906002020160010181905550808060010191505061140d565b5050565b60068181548110151561146057fe5b9060005260206000209060020201600091509050806000018054600181600116156101000203166002900480601f01602080910402602001604051908101604052809291908181526020018280546001816001161561010002031660029004801561150c5780601f106114e15761010080835404028352916020019161150c565b820191906000526020600020905b8154815290600101906020018083116114ef57829003601f168201915b5050505050908060010154905082565b60036020528060005260406000206000915090505481565b60606005805480602002602001604051908101604052809291908181526020016000905b828210156116365783829060005260206000209060020201604080519081016040529081600082018054600181600116156101000203166002900480601f0160208091040260200160405190810160405280929190818152602001828054600181600116156101000203166002900480156116145780601f106115e957610100808354040283529160200191611614565b820191906000526020600020905b8154815290600101906020018083116115f757829003601f168201915b5050505050815260200160018201548152505081526020019060010190611558565b50505050905090565b60028181548110151561164e57fe5b90600052602060002090600402016000915090508060000154908060010160009054906101000a900473ffffffffffffffffffffffffffffffffffffffff16908060020160009054906101000a900473ffffffffffffffffffffffffffffffffffffffff16905083565b60606002805480602002602001604051908101604052809291908181526020016000905b8282101561181d578382906000526020600020906004020160806040519081016040529081600082015481526020016001820160009054906101000a900473ffffffffffffffffffffffffffffffffffffffff1673ffffffffffffffffffffffffffffffffffffffff1673ffffffffffffffffffffffffffffffffffffffff1681526020016002820160009054906101000a900473ffffffffffffffffffffffffffffffffffffffff1673ffffffffffffffffffffffffffffffffffffffff1673ffffffffffffffffffffffffffffffffffffffff1681526020016003820180548060200260200160405190810160405280929190818152602001828054801561180557602002820191906000526020600020905b8154815260200190600101908083116117f1575b505050505081525050815260200190600101906116dc565b50505050905090565b6001809054906101000a900473ffffffffffffffffffffffffffffffffffffffff1673ffffffffffffffffffffffffffffffffffffffff163373ffffffffffffffffffffffffffffffffffffffff161415156118b7576040517f08c379a00000000000000000000000000000000000000000000000000000000081526004016118ae90612e3a565b60405180910390fd5b60006005816118c691906120bd565b5060008090505b8151811015611967576005604080519081016040528084848151811015156118f157fe5b906020019060200201518152602001600081525090806001815401808255809150509060018203906000526020600020906002020160009091929091909150600082015181600001908051906020019061194c92919061214d565b506020820151816001015550505080806001019150506118cd565b5050565b60606004805480602002602001604051908101604052809291908181526020016000905b82821015611a3457838290600052602060002090600202016040805190810160405290816000820160009054906101000a900460ff1615151515815260200160018201805480602002602001604051908101604052809291908181526020018280548015611a1c57602002820191906000526020600020905b815481526020019060010190808311611a08575b5050505050815250508152602001906001019061198f565b50505050905090565b6001809054906101000a900473ffffffffffffffffffffffffffffffffffffffff1673ffffffffffffffffffffffffffffffffffffffff163373ffffffffffffffffffffffffffffffffffffffff16141515611ace576040517f08c379a0000000000000000000000000000000000000000000000000000000008152600401611ac590612e3a565b60405180910390fd5b60011515600160009054906101000a900460ff161515141515611b26576040517f08c379a0000000000000000000000000000000000000000000000000000000008152600401611b1d90612eba565b60405180910390fd5b6000600160006101000a81548160ff0219169083151502179055506000611b4b611f6e565b905060008090505b600580549050811015611c155781600582815481101515611b7057fe5b9060005260206000209060020201600101541415611c08576006600582815481101515611b9957fe5b90600052602060002090600202019080600181540180825580915050906001820390600052602060002090600202016000909192909190915060008201816000019080546001816001161561010002031660029004611bf99291906121cd565b50600182015481600101555050505b8080600101915050611b53565b5050565b600081905060006002600360003373ffffffffffffffffffffffffffffffffffffffff1673ffffffffffffffffffffffffffffffffffffffff16815260200190815260200160002054815481101515611c6e57fe5b90600052602060002090600402019050611c866109da565b816000018190555060008160000154118015611ca6575081816000015410155b1515611ce7576040517f08c379a0000000000000000000000000000000000000000000000000000000008152600401611cde90612dda565b60405180910390fd5b6000548451141515611d2e576040517f08c379a0000000000000000000000000000000000000000000000000000000008152600401611d2590612e7a565b60405180910390fd5b60008090505b8160030180549050811015611e0657600060048360030183815481101515611d5857fe5b9060005260206000200154815481101515611d6f57fe5b906000526020600020906002020190508060000160009054906101000a900460ff16158015611d9e5750600084115b15611df85760018160000160006101000a81548160ff02191690831515021790555083806001900394505082600001600081548092919060019003919050555085816001019080519060200190611df6929190612254565b505b508080600101915050611d34565b5060008090505b8451811015611e68578360058683815181101515611e2757fe5b90602001906020020151815481101515611e3d57fe5b9060005260206000209060020201600101600082825401925050819055508080600101915050611e0d565b5060008090505b600280549050811015611f6757600080905060008090505b600283815481101515611e9657fe5b906000526020600020906004020160030180549050811015611f33576004600284815481101515611ec357fe5b906000526020600020906004020160030182815481101515611ee157fe5b9060005260206000200154815481101515611ef857fe5b906000526020600020906002020160000160009054906101000a900460ff161515611f265781806001019250505b8080600101915050611e87565b5080600283815481101515611f4457fe5b906000526020600020906004020160000181905550508080600101915050611e6f565b5050505050565b6000806000905060008090505b600580549050811015611fe15781600582815481101515611f9857fe5b9060005260206000209060020201600101541115611fd457600581815481101515611fbf57fe5b90600052602060002090600202016001015491505b8080600101915050611f7b565b508091505090565b8154818355818111156120165760040281600402836000526020600020918201910161201591906122a1565b5b505050565b828054828255906000526020600020908101928215612057579160200282015b8281111561205657825182559160200191906001019061203b565b5b5090506120649190612326565b5090565b60806040519081016040528060008152602001600073ffffffffffffffffffffffffffffffffffffffff168152602001600073ffffffffffffffffffffffffffffffffffffffff168152602001606081525090565b8154818355818111156120ea576002028160020283600052602060002091820191016120e9919061234b565b5b505050565b81548183558181111561211c5760020281600202836000526020600020918201910161211b9190612382565b5b505050565b815481835581811115612148578183600052602060002091820191016121479190612326565b5b505050565b828054600181600116156101000203166002900490600052602060002090601f016020900481019282601f1061218e57805160ff19168380011785556121bc565b828001600101855582156121bc579182015b828111156121bb5782518255916020019190600101906121a0565b5b5090506121c99190612326565b5090565b828054600181600116156101000203166002900490600052602060002090601f016020900481019282601f106122065780548555612243565b8280016001018555821561224357600052602060002091601f016020900482015b82811115612242578254825591600101919060010190612227565b5b5090506122509190612326565b5090565b828054828255906000526020600020908101928215612290579160200282015b8281111561228f578251825591602001919060010190612274565b5b50905061229d9190612326565b5090565b61232391905b8082111561231f576000808201600090556001820160006101000a81549073ffffffffffffffffffffffffffffffffffffffff02191690556002820160006101000a81549073ffffffffffffffffffffffffffffffffffffffff021916905560038201600061231691906123c5565b506004016122a7565b5090565b90565b61234891905b8082111561234457600081600090555060010161232c565b5090565b90565b61237f91905b8082111561237b576000808201600061236a91906123e6565b600182016000905550600201612351565b5090565b90565b6123c291905b808211156123be57600080820160006101000a81549060ff02191690556001820160006123b591906123c5565b50600201612388565b5090565b90565b50805460008255906000526020600020908101906123e39190612326565b50565b50805460018160011615610100020316600290046000825580601f1061240c575061242b565b601f01602090049060005260206000209081019061242a9190612326565b5b50565b600061243a8235613146565b905092915050565b600082601f830112151561245557600080fd5b813561246861246382612fbb565b612f8e565b9150818183526020840193506020810190508385602084028201111561248d57600080fd5b60005b838110156124bd57816124a3888261242e565b845260208401935060208301925050600181019050612490565b5050505092915050565b600082601f83011215156124da57600080fd5b81356124ed6124e882612fe3565b612f8e565b9150818183526020840193506020810190508360005b83811015612533578135860161251988826125c2565b845260208401935060208301925050600181019050612503565b5050505092915050565b600082601f830112151561255057600080fd5b813561256361255e8261300b565b612f8e565b9150818183526020840193506020810190508385602084028201111561258857600080fd5b60005b838110156125b8578161259e8882612618565b84526020840193506020830192505060018101905061258b565b5050505092915050565b600082601f83011215156125d557600080fd5b81356125e86125e382613033565b612f8e565b9150808252602083016020830185838301111561260457600080fd5b61260f838284613162565b50505092915050565b60006126248235613158565b905092915050565b60006020828403121561263e57600080fd5b600061264c8482850161242e565b91505092915050565b60006020828403121561266757600080fd5b600082013567ffffffffffffffff81111561268157600080fd5b61268d84828501612442565b91505092915050565b6000602082840312156126a857600080fd5b600082013567ffffffffffffffff8111156126c257600080fd5b6126ce848285016124c7565b91505092915050565b600080604083850312156126ea57600080fd5b600083013567ffffffffffffffff81111561270457600080fd5b6127108582860161253d565b925050602061272185828601612618565b9150509250929050565b60006020828403121561273d57600080fd5b600061274b84828501612618565b91505092915050565b61275d816130fe565b82525050565b600061276e82613093565b808452602084019350836020820285016127878561305f565b60005b848110156127c05783830388526127a2838351612bbf565b92506127ad826130ca565b915060208801975060018101905061278a565b508196508694505050505092915050565b60006127dc8261309e565b808452602084019350836020820285016127f58561306c565b60005b8481101561282e578383038852612810838351612bfc565b925061281b826130d7565b91506020880197506001810190506127f8565b508196508694505050505092915050565b600061284a826130a9565b8084526020840193508360208202850161286385613079565b60005b8481101561289c57838303885261287e838351612c9c565b9250612889826130e4565b9150602088019750600181019050612866565b508196508694505050505092915050565b60006128b8826130b4565b8084526020840193506128ca83613086565b60005b828110156128fc576128e0868351612cff565b6128e9826130f1565b91506020860195506001810190506128cd565b50849250505092915050565b61291181613110565b82525050565b6000612922826130bf565b808452612936816020860160208601613171565b61293f816131a4565b602085010191505092915050565b6000601482527f486173206e6f20726967687420746f20766f74650000000000000000000000006020830152604082019050919050565b6000602382527f4261752063752064616e67206469656e2072612c206b6574207468756320747260208301527f756f6300000000000000000000000000000000000000000000000000000000006040830152606082019050919050565b6000602482527f736f206e67756f692074726f6e6720312070686965752062617520717561206e60208301527f68696575000000000000000000000000000000000000000000000000000000006040830152606082019050919050565b6000601482527f4e67756f6920677569206b686f6e672064756e670000000000000000000000006020830152604082019050919050565b6000601082527f536f2063752074726920717561206974000000000000000000000000000000006020830152604082019050919050565b6000601c82527f536f206e67756f692064756f6320626175206b686f6e672064756e67000000006020830152604082019050919050565b6000601982527f466f756e64206c6f6f7020696e2064656c65676174696f6e2e000000000000006020830152604082019050919050565b6000601b82527f4261752063752064616e67206b686f6f6e6720206469656e20726100000000006020830152604082019050919050565b6000601582527f536f20756e67206375207669656e2071756120697400000000000000000000006020830152604082019050919050565b6000601e82527f53656c662d64656c65676174696f6e20697320646973616c6c6f7765642e00006020830152604082019050919050565b6000604083016000830151612bd76000860182612908565b5060208301518482036020860152612bef82826128ad565b9150508091505092915050565b60006040830160008301518482036000860152612c198282612917565b9150506020830151612c2e6020860182612cff565b508091505092915050565b6000608083016000830151612c516000860182612cff565b506020830151612c646020860182612754565b506040830151612c776040860182612754565b5060608301518482036060860152612c8f82826128ad565b9150508091505092915050565b6000608083016000830151612cb46000860182612cff565b506020830151612cc76020860182612754565b506040830151612cda6040860182612754565b5060608301518482036060860152612cf282826128ad565b9150508091505092915050565b612d088161313c565b82525050565b6000602082019050612d236000830184612754565b92915050565b60006020820190508181036000830152612d438184612763565b905092915050565b60006020820190508181036000830152612d6581846127d1565b905092915050565b60006020820190508181036000830152612d87818461283f565b905092915050565b6000602082019050612da46000830184612908565b92915050565b60006040820190508181036000830152612dc48185612917565b9050612dd36020830184612cff565b9392505050565b60006020820190508181036000830152612df38161294d565b9050919050565b60006020820190508181036000830152612e1381612984565b9050919050565b60006020820190508181036000830152612e33816129e1565b9050919050565b60006020820190508181036000830152612e5381612a3e565b9050919050565b60006020820190508181036000830152612e7381612a75565b9050919050565b60006020820190508181036000830152612e9381612aac565b9050919050565b60006020820190508181036000830152612eb381612ae3565b9050919050565b60006020820190508181036000830152612ed381612b1a565b9050919050565b60006020820190508181036000830152612ef381612b51565b9050919050565b60006020820190508181036000830152612f1381612b88565b9050919050565b60006020820190508181036000830152612f348184612c39565b905092915050565b6000602082019050612f516000830184612cff565b92915050565b6000606082019050612f6c6000830186612cff565b612f796020830185612754565b612f866040830184612754565b949350505050565b6000604051905081810181811067ffffffffffffffff82111715612fb157600080fd5b8060405250919050565b600067ffffffffffffffff821115612fd257600080fd5b602082029050602081019050919050565b600067ffffffffffffffff821115612ffa57600080fd5b602082029050602081019050919050565b600067ffffffffffffffff82111561302257600080fd5b602082029050602081019050919050565b600067ffffffffffffffff82111561304a57600080fd5b601f19601f8301169050602081019050919050565b6000602082019050919050565b6000602082019050919050565b6000602082019050919050565b6000602082019050919050565b600081519050919050565b600081519050919050565b600081519050919050565b600081519050919050565b600081519050919050565b6000602082019050919050565b6000602082019050919050565b6000602082019050919050565b6000602082019050919050565b60006131098261311c565b9050919050565b60008115159050919050565b600073ffffffffffffffffffffffffffffffffffffffff82169050919050565b6000819050919050565b60006131518261311c565b9050919050565b6000819050919050565b82818337600083830152505050565b60005b8381101561318f578082015181840152602081019050613174565b8381111561319e576000848401525b50505050565b6000601f19601f830116905091905056fea265627a7a72305820af511864d4e05d41e3730ecbd95b3d29af9233589ba9ca8d2b5596e613abd6cf6c6578706572696d656e74616cf50037",
  "source": "pragma solidity >=0.4.22 <0.7.0;\r\npragma experimental ABIEncoderV2;\r\n/// @title Voting with delegation.\r\ncontract Election {\r\n    uint public numberProposal = 1;  //moi nguoi bau toi da may nguoi\r\n    bool public isVoting = false; // trng thi ca cuc  bu c\r\n\r\n\r\n    struct Voter {//nguoi vote (co kha nang vote hoc u quyn vote cho ngi khc)\r\n        uint weight;\r\n        address addr;\r\n        address delegate;  //dia chi nguoi uy quyen\r\n        uint[] ballots;\r\n    }\r\n\r\n    struct Ballot {\r\n        bool voted;\r\n        uint[] voters; //id cua nhung nguoi duoc nguoi vote\r\n    }\r\n\r\n    struct Proposal {//ng c vin\r\n        string name;\r\n        uint voteCount; // number of accumulated votes\r\n    }\r\n\r\n    address public chairperson; //ngi t chc(c kh nng cp quyn vote)\r\n    Voter[] public voterArray;\r\n    mapping(address => uint) public voters;\r\n    Ballot[] public ballots;\r\n    Proposal[] public proposals; //to danh sch ng c vin ( di dng chui dng bytes32)\r\n    Proposal[] public winners;\r\n\r\n    constructor() public {\r\n        chairperson = msg.sender;\r\n        voterArray.push(Voter(0, address(0), address(0), new uint[](0)));\r\n    }\r\n\r\n    function start(uint proposalInBallot) public {\r\n        require(proposalInBallot < proposals.length, \"so nguoi trong 1 phieu bau qua nhieu\");\r\n        require(proposals.length > 1, \"So ung cu vien qua it\");\r\n        require(voterArray.length >= 4, \"So cu tri qua it\");\r\n        require(msg.sender == chairperson, \"Nguoi gui khong dung\");\r\n        require(isVoting == false, \"Bau cu dang dien ra, ket thuc truoc\");\r\n        isVoting = true;\r\n        winners.length = 0;\r\n        ballots.length = 0;\r\n        numberProposal = proposalInBallot;\r\n        for (uint i = 1; i < voterArray.length; i++) {\r\n            ballots.push(Ballot(false, new uint[](0)));\r\n            voterArray[i].ballots.length = 0;\r\n            voterArray[i].ballots.push(i - 1);\r\n            voterArray[i].weight = 1;\r\n            voterArray[i].delegate = address(0);\r\n        }\r\n        for (uint i = 1; i < proposals.length; i++) {\r\n            proposals[i].voteCount = 0;\r\n        }\r\n    }\r\n\r\n    function end() public {\r\n        require(msg.sender == chairperson, \"Nguoi gui khong dung\");\r\n        require(isVoting == true, \"Bau cu dang khoong  dien ra\");\r\n        isVoting = false;\r\n        uint value = winningProposal();\r\n        for(uint i=0;i<proposals.length;i++){\r\n            if(proposals[i].voteCount == value) {\r\n                winners.push(proposals[i]);\r\n            }\r\n        }\r\n    }\r\n\r\n\r\n    // Delegate your vote to the voter `to`\r\n    function delegate(address to) public {\r\n        // assigns reference\r\n        Voter storage sender = voterArray[voters[msg.sender]];\r\n        require(to != msg.sender, \"Self-delegation is disallowed.\");\r\n        while (voterArray[voters[to]].delegate != address(0)) {\r\n            to = voterArray[voters[to]].delegate;\r\n            // We found a loop in the delegation, not allowed.\r\n            require(to != msg.sender, \"Found loop in delegation.\");\r\n        }\r\n        sender.delegate = to;\r\n        Voter storage delegate_ = voterArray[voters[to]];\r\n        for (uint i = 0; i < sender.ballots.length; i++) {\r\n            bool exist = false;\r\n            for (uint j = 0; j < delegate_.ballots.length; j++) {\r\n                if (sender.ballots[i] == delegate_.ballots[j]) {\r\n                    exist = true;\r\n                    break;\r\n                }\r\n            }\r\n            if (!exist) {\r\n                delegate_.weight += 1;\r\n                delegate_.ballots.push(sender.ballots[i]);\r\n            }\r\n        }\r\n    }\r\n\r\n\r\n    // Give your vote (including votes delegated to you)\r\n    function vote(uint[] memory array, uint ballotToVote) public {\r\n        uint count = ballotToVote;\r\n        Voter storage sender = voterArray[voters[msg.sender]];\r\n        sender.weight = getRemainBallot();\r\n\r\n        // lay so luong phieu con dung duoc\r\n        require(sender.weight > 0 && sender.weight >= count, \"Has no right to vote\");\r\n        require(array.length == numberProposal, \"So nguoi duoc bau khong dung\");\r\n        for (uint i = 0; i < sender.ballots.length; i++) {\r\n            Ballot storage temp = ballots[sender.ballots[i]];\r\n            if (!temp.voted && count > 0) {\r\n                temp.voted = true;\r\n                count --;\r\n                sender.weight --;\r\n                temp.voters = array;\r\n            }\r\n        }\r\n        for (uint j = 0; j < array.length; j++) {\r\n            proposals[array[j]].voteCount += ballotToVote;\r\n        }\r\n\r\n        for (uint i = 0; i < voterArray.length; i++) {\r\n            uint weight = 0;\r\n            for (uint j = 0; j < voterArray[i].ballots.length; j++) {\r\n                if (!ballots[voterArray[i].ballots[j]].voted) {\r\n                    weight++;\r\n                }\r\n            }\r\n            voterArray[i].weight = weight;\r\n        }\r\n    }\r\n\r\n    // dem so phieu con co the bau thu 1 list ballot\r\n    function getRemainBallot() public view returns (uint) {\r\n        Voter storage sender = voterArray[voters[msg.sender]];\r\n        uint count = 0;\r\n        for (uint i = 0; i < sender.ballots.length; i++) {\r\n            if (!ballots[sender.ballots[i]].voted) {\r\n                count++;\r\n            }\r\n        }\r\n        return count;\r\n    }\r\n\r\n    // Computes the winning proposal taking all\r\n    // previous votes into account.\r\n    function winningProposal() private view\r\n    returns (uint){\r\n        uint winningVoteCount = 0;\r\n        for (uint p = 0; p < proposals.length; p++) {\r\n            if (proposals[p].voteCount > winningVoteCount) {\r\n                winningVoteCount = proposals[p].voteCount;\r\n            }\r\n        }\r\n        return winningVoteCount;\r\n    }\r\n\r\n\r\n    // tao tat cac cac nguoi di bau cu\r\n    function setVoter(address[] memory addresses) public {\r\n        require(msg.sender == chairperson, \"Nguoi gui khong dung\");\r\n        voterArray.length = 1;\r\n        for (uint i = 0; i < addresses.length; i++) {\r\n            voterArray.push(Voter(0, addresses[i], address(0), new uint[](0)));\r\n            voters[addresses[i]] = i + 1;\r\n        }\r\n    }\r\n\r\n    function setProposal(string[] memory names) public {\r\n        require(msg.sender == chairperson, \"Nguoi gui khong dung\");\r\n        proposals.length = 0;\r\n        for (uint i = 0; i < names.length; i++) {\r\n            proposals.push(Proposal({name : names[i], voteCount : 0}));\r\n        }\r\n    }\r\n\r\n\r\n    function getProposal() public view returns (Proposal[] memory) {\r\n        return proposals;\r\n    }\r\n\r\n    function getVoters() public view returns (Voter[] memory) {\r\n        return voterArray;\r\n    }\r\n\r\n    function getMyselfVoter() public view returns (Voter memory) {\r\n        return voterArray[voters[msg.sender]];\r\n    }\r\n\r\n    function getBallots() public view returns (Ballot[] memory) {\r\n        return ballots;\r\n    }\r\n\r\n    function getWinner() public view returns (Proposal[] memory) {\r\n        return winners;\r\n    }\r\n\r\n}",
  "sourcePath": "D:/project/react-js/he-phan-tan-app/client/src/contracts/src/Election.sol",
  "compiler": {
    "name": "solc",
    "version": "0.5.0+commit.1d4f565a.Emscripten.clang"
  },
  "schemaVersion": "3.0.9",
  "updatedAt": "2019-05-27T09:01:59.934Z",
  "devdoc": {
    "methods": {},
    "title": "Voting with delegation."
  },
  "userdoc": {
    "methods": {}
  }
}