{
  "contractName": "Election",
  "abi": [
    {
      "constant": true,
      "inputs": [
        {
          "name": "",
          "type": "uint256"
        }
      ],
      "name": "proposals",
      "outputs": [
        {
          "name": "name",
          "type": "string"
        },
        {
          "name": "voteCount",
          "type": "uint256"
        }
      ],
      "payable": false,
      "stateMutability": "view",
      "type": "function"
    },
    {
      "constant": true,
      "inputs": [],
      "name": "numberProposal",
      "outputs": [
        {
          "name": "",
          "type": "uint256"
        }
      ],
      "payable": false,
      "stateMutability": "view",
      "type": "function"
    },
    {
      "constant": true,
      "inputs": [],
      "name": "isVoting",
      "outputs": [
        {
          "name": "",
          "type": "bool"
        }
      ],
      "payable": false,
      "stateMutability": "view",
      "type": "function"
    },
    {
      "constant": true,
      "inputs": [],
      "name": "chairperson",
      "outputs": [
        {
          "name": "",
          "type": "address"
        }
      ],
      "payable": false,
      "stateMutability": "view",
      "type": "function"
    },
    {
      "constant": true,
      "inputs": [
        {
          "name": "",
          "type": "uint256"
        }
      ],
      "name": "ballots",
      "outputs": [
        {
          "name": "voted",
          "type": "bool"
        }
      ],
      "payable": false,
      "stateMutability": "view",
      "type": "function"
    },
    {
      "constant": true,
      "inputs": [
        {
          "name": "",
          "type": "uint256"
        }
      ],
      "name": "winners",
      "outputs": [
        {
          "name": "name",
          "type": "string"
        },
        {
          "name": "voteCount",
          "type": "uint256"
        }
      ],
      "payable": false,
      "stateMutability": "view",
      "type": "function"
    },
    {
      "constant": true,
      "inputs": [
        {
          "name": "",
          "type": "address"
        }
      ],
      "name": "voters",
      "outputs": [
        {
          "name": "",
          "type": "uint256"
        }
      ],
      "payable": false,
      "stateMutability": "view",
      "type": "function"
    },
    {
      "constant": true,
      "inputs": [
        {
          "name": "",
          "type": "uint256"
        }
      ],
      "name": "voterArray",
      "outputs": [
        {
          "name": "weight",
          "type": "uint256"
        },
        {
          "name": "addr",
          "type": "address"
        },
        {
          "name": "delegate",
          "type": "address"
        }
      ],
      "payable": false,
      "stateMutability": "view",
      "type": "function"
    },
    {
      "inputs": [],
      "payable": false,
      "stateMutability": "nonpayable",
      "type": "constructor"
    },
    {
      "constant": false,
      "inputs": [
        {
          "name": "proposalInBallot",
          "type": "uint256"
        }
      ],
      "name": "start",
      "outputs": [],
      "payable": false,
      "stateMutability": "nonpayable",
      "type": "function"
    },
    {
      "constant": false,
      "inputs": [],
      "name": "end",
      "outputs": [],
      "payable": false,
      "stateMutability": "nonpayable",
      "type": "function"
    },
    {
      "constant": false,
      "inputs": [
        {
          "name": "to",
          "type": "address"
        }
      ],
      "name": "delegate",
      "outputs": [],
      "payable": false,
      "stateMutability": "nonpayable",
      "type": "function"
    },
    {
      "constant": false,
      "inputs": [
        {
          "name": "array",
          "type": "uint256[]"
        },
        {
          "name": "ballotToVote",
          "type": "uint256"
        }
      ],
      "name": "vote",
      "outputs": [],
      "payable": false,
      "stateMutability": "nonpayable",
      "type": "function"
    },
    {
      "constant": true,
      "inputs": [],
      "name": "getRemainBallot",
      "outputs": [
        {
          "name": "",
          "type": "uint256"
        }
      ],
      "payable": false,
      "stateMutability": "view",
      "type": "function"
    },
    {
      "constant": false,
      "inputs": [
        {
          "name": "addresses",
          "type": "address[]"
        }
      ],
      "name": "setVoter",
      "outputs": [],
      "payable": false,
      "stateMutability": "nonpayable",
      "type": "function"
    },
    {
      "constant": false,
      "inputs": [
        {
          "name": "names",
          "type": "string[]"
        }
      ],
      "name": "setProposal",
      "outputs": [],
      "payable": false,
      "stateMutability": "nonpayable",
      "type": "function"
    },
    {
      "constant": true,
      "inputs": [],
      "name": "getProposal",
      "outputs": [
        {
          "components": [
            {
              "name": "name",
              "type": "string"
            },
            {
              "name": "voteCount",
              "type": "uint256"
            }
          ],
          "name": "",
          "type": "tuple[]"
        }
      ],
      "payable": false,
      "stateMutability": "view",
      "type": "function"
    },
    {
      "constant": true,
      "inputs": [],
      "name": "getVoters",
      "outputs": [
        {
          "components": [
            {
              "name": "weight",
              "type": "uint256"
            },
            {
              "name": "addr",
              "type": "address"
            },
            {
              "name": "delegate",
              "type": "address"
            },
            {
              "name": "ballots",
              "type": "uint256[]"
            }
          ],
          "name": "",
          "type": "tuple[]"
        }
      ],
      "payable": false,
      "stateMutability": "view",
      "type": "function"
    },
    {
      "constant": true,
      "inputs": [],
      "name": "getMyself",
      "outputs": [
        {
          "components": [
            {
              "name": "weight",
              "type": "uint256"
            },
            {
              "name": "addr",
              "type": "address"
            },
            {
              "name": "delegate",
              "type": "address"
            },
            {
              "name": "ballots",
              "type": "uint256[]"
            }
          ],
          "name": "",
          "type": "tuple"
        }
      ],
      "payable": false,
      "stateMutability": "view",
      "type": "function"
    },
    {
      "constant": true,
      "inputs": [],
      "name": "getBallots",
      "outputs": [
        {
          "components": [
            {
              "name": "voted",
              "type": "bool"
            },
            {
              "name": "voters",
              "type": "uint256[]"
            }
          ],
          "name": "",
          "type": "tuple[]"
        }
      ],
      "payable": false,
      "stateMutability": "view",
      "type": "function"
    },
    {
      "constant": true,
      "inputs": [],
      "name": "getWinner",
      "outputs": [
        {
          "components": [
            {
              "name": "name",
              "type": "string"
            },
            {
              "name": "voteCount",
              "type": "uint256"
            }
          ],
          "name": "",
          "type": "tuple[]"
        }
      ],
      "payable": false,
      "stateMutability": "view",
      "type": "function"
    }
  ],
  "bytecode": "0x608060405260016000556000600160006101000a81548160ff0219169083151502179055503480156200003157600080fd5b50336001806101000a81548173ffffffffffffffffffffffffffffffffffffffff021916908373ffffffffffffffffffffffffffffffffffffffff160217905550600260806040519081016040528060008152602001600073ffffffffffffffffffffffffffffffffffffffff168152602001600073ffffffffffffffffffffffffffffffffffffffff1681526020016000604051908082528060200260200182016040528015620000f25781602001602082028038833980820191505090505b50815250908060018154018082558091505090600182039060005260206000209060040201600090919290919091506000820151816000015560208201518160010160006101000a81548173ffffffffffffffffffffffffffffffffffffffff021916908373ffffffffffffffffffffffffffffffffffffffff16021790555060408201518160020160006101000a81548173ffffffffffffffffffffffffffffffffffffffff021916908373ffffffffffffffffffffffffffffffffffffffff1602179055506060820151816003019080519060200190620001d7929190620001e1565b505050506200025b565b82805482825590600052602060002090810192821562000220579160200282015b828111156200021f57825182559160200191906001019062000202565b5b5090506200022f919062000233565b5090565b6200025891905b80821115620002545760008160009055506001016200023a565b5090565b90565b6134d1806200026b6000396000f3fe608060405260043610610112576000357c0100000000000000000000000000000000000000000000000000000000900463ffffffff168063013cf08b146101175780630f01ae57146101555780631bbef399146101805780631e48ec05146101ab5780632e4176cf146101d45780634d93768f146101ff5780635c19a95c1461022a5780635c632b381461025357806373669754146102905780638e7ea5b2146102bb57806395805dad146102e6578063a2fb11751461030f578063a3ec138d1461034d578063b9e2bea01461038a578063c279919f146103b5578063cdd72253146103f4578063d8c7c6381461041f578063eb87c6dc14610448578063efbe1c1c14610473578063f429af191461048a575b600080fd5b34801561012357600080fd5b5061013e60048036036101399190810190612908565b6104b3565b60405161014c92919061302c565b60405180910390f35b34801561016157600080fd5b5061016a61057e565b604051610177919061321e565b60405180910390f35b34801561018c57600080fd5b50610195610584565b6040516101a29190613011565b60405180910390f35b3480156101b757600080fd5b506101d260048036036101cd9190810190612832565b610597565b005b3480156101e057600080fd5b506101e96108db565b6040516101f69190612f90565b60405180910390f35b34801561020b57600080fd5b50610214610900565b604051610221919061321e565b60405180910390f35b34801561023657600080fd5b50610251600480360361024c9190810190612809565b6109e9565b005b34801561025f57600080fd5b5061027a60048036036102759190810190612908565b610ee4565b6040516102879190613011565b60405180910390f35b34801561029c57600080fd5b506102a5610f1e565b6040516102b291906131fc565b60405180910390f35b3480156102c757600080fd5b506102d06110a1565b6040516102dd9190612fcd565b60405180910390f35b3480156102f257600080fd5b5061030d60048036036103089190810190612908565b6111ac565b005b34801561031b57600080fd5b5061033660048036036103319190810190612908565b6115d6565b60405161034492919061302c565b60405180910390f35b34801561035957600080fd5b50610374600480360361036f9190810190612809565b6116a1565b604051610381919061321e565b60405180910390f35b34801561039657600080fd5b5061039f6116b9565b6040516103ac9190612fcd565b60405180910390f35b3480156103c157600080fd5b506103dc60048036036103d79190810190612908565b6117c4565b6040516103eb93929190613239565b60405180910390f35b34801561040057600080fd5b5061040961183d565b6040516104169190612fef565b60405180910390f35b34801561042b57600080fd5b5061044660048036036104419190810190612873565b6119ab565b005b34801561045457600080fd5b5061045d611af0565b60405161046a9190612fab565b60405180910390f35b34801561047f57600080fd5b50610488611bc2565b005b34801561049657600080fd5b506104b160048036036104ac91908101906128b4565b611d9e565b005b6005818154811015156104c257fe5b9060005260206000209060020201600091509050806000018054600181600116156101000203166002900480601f01602080910402602001604051908101604052809291908181526020018280546001816001161561010002031660029004801561056e5780601f106105435761010080835404028352916020019161056e565b820191906000526020600020905b81548152906001019060200180831161055157829003601f168201915b5050505050908060010154905082565b60005481565b600160009054906101000a900460ff1681565b6001809054906101000a900473ffffffffffffffffffffffffffffffffffffffff1673ffffffffffffffffffffffffffffffffffffffff163373ffffffffffffffffffffffffffffffffffffffff16141515610628576040517f08c379a000000000000000000000000000000000000000000000000000000000815260040161061f906130dc565b60405180910390fd5b600160028161063791906121c6565b5060008090505b81518110156108d7576001809054906101000a900473ffffffffffffffffffffffffffffffffffffffff1673ffffffffffffffffffffffffffffffffffffffff16828281518110151561068d57fe5b9060200190602002015173ffffffffffffffffffffffffffffffffffffffff16141515156106f0576040517f08c379a00000000000000000000000000000000000000000000000000000000081526004016106e7906130fc565b60405180910390fd5b600260806040519081016040528060008152602001848481518110151561071357fe5b9060200190602002015173ffffffffffffffffffffffffffffffffffffffff168152602001600073ffffffffffffffffffffffffffffffffffffffff16815260200160006040519080825280602002602001820160405280156107855781602001602082028038833980820191505090505b50815250908060018154018082558091505090600182039060005260206000209060040201600090919290919091506000820151816000015560208201518160010160006101000a81548173ffffffffffffffffffffffffffffffffffffffff021916908373ffffffffffffffffffffffffffffffffffffffff16021790555060408201518160020160006101000a81548173ffffffffffffffffffffffffffffffffffffffff021916908373ffffffffffffffffffffffffffffffffffffffff16021790555060608201518160030190805190602001906108689291906121f8565b505050506001810160036000848481518110151561088257fe5b9060200190602002015173ffffffffffffffffffffffffffffffffffffffff1673ffffffffffffffffffffffffffffffffffffffff16815260200190815260200160002081905550808060010191505061063e565b5050565b6001809054906101000a900473ffffffffffffffffffffffffffffffffffffffff1681565b6000806002600360003373ffffffffffffffffffffffffffffffffffffffff1673ffffffffffffffffffffffffffffffffffffffff1681526020019081526020016000205481548110151561095157fe5b90600052602060002090600402019050600080905060008090505b82600301805490508110156109e0576004836003018281548110151561098e57fe5b90600052602060002001548154811015156109a557fe5b906000526020600020906002020160000160009054906101000a900460ff1615156109d35781806001019250505b808060010191505061096c565b50809250505090565b60011515600160009054906101000a900460ff161515141515610a41576040517f08c379a0000000000000000000000000000000000000000000000000000000008152600401610a389061319c565b60405180910390fd5b60006002600360003373ffffffffffffffffffffffffffffffffffffffff1673ffffffffffffffffffffffffffffffffffffffff16815260200190815260200160002054815481101515610a9157fe5b906000526020600020906004020190503373ffffffffffffffffffffffffffffffffffffffff168273ffffffffffffffffffffffffffffffffffffffff1614151515610b12576040517f08c379a0000000000000000000000000000000000000000000000000000000008152600401610b09906131dc565b60405180910390fd5b6000600360008473ffffffffffffffffffffffffffffffffffffffff1673ffffffffffffffffffffffffffffffffffffffff1681526020019081526020016000205414151515610b97576040517f08c379a0000000000000000000000000000000000000000000000000000000008152600401610b8e9061313c565b60405180910390fd5b5b600073ffffffffffffffffffffffffffffffffffffffff166002600360008573ffffffffffffffffffffffffffffffffffffffff1673ffffffffffffffffffffffffffffffffffffffff16815260200190815260200160002054815481101515610bfe57fe5b906000526020600020906004020160020160009054906101000a900473ffffffffffffffffffffffffffffffffffffffff1673ffffffffffffffffffffffffffffffffffffffff16141515610d45576002600360008473ffffffffffffffffffffffffffffffffffffffff1673ffffffffffffffffffffffffffffffffffffffff16815260200190815260200160002054815481101515610c9b57fe5b906000526020600020906004020160020160009054906101000a900473ffffffffffffffffffffffffffffffffffffffff1691503373ffffffffffffffffffffffffffffffffffffffff168273ffffffffffffffffffffffffffffffffffffffff1614151515610d40576040517f08c379a0000000000000000000000000000000000000000000000000000000008152600401610d379061317c565b60405180910390fd5b610b98565b818160020160006101000a81548173ffffffffffffffffffffffffffffffffffffffff021916908373ffffffffffffffffffffffffffffffffffffffff16021790555060006002600360008573ffffffffffffffffffffffffffffffffffffffff1673ffffffffffffffffffffffffffffffffffffffff16815260200190815260200160002054815481101515610dd857fe5b9060005260206000209060040201905060008090505b8260030180549050811015610ede57600080905060008090505b8360030180549050811015610e6b578360030181815481101515610e2857fe5b90600052602060002001548560030184815481101515610e4457fe5b90600052602060002001541415610e5e5760019150610e6b565b8080600101915050610e08565b50801515610ed05760018360000160008282540192505081905550826003018460030183815481101515610e9b57fe5b906000526020600020015490806001815401808255809150509060018203906000526020600020016000909192909190915055505b508080600101915050610dee565b50505050565b600481815481101515610ef357fe5b90600052602060002090600202016000915090508060000160009054906101000a900460ff16905081565b610f26612245565b6002600360003373ffffffffffffffffffffffffffffffffffffffff1673ffffffffffffffffffffffffffffffffffffffff16815260200190815260200160002054815481101515610f7457fe5b906000526020600020906004020160806040519081016040529081600082015481526020016001820160009054906101000a900473ffffffffffffffffffffffffffffffffffffffff1673ffffffffffffffffffffffffffffffffffffffff1673ffffffffffffffffffffffffffffffffffffffff1681526020016002820160009054906101000a900473ffffffffffffffffffffffffffffffffffffffff1673ffffffffffffffffffffffffffffffffffffffff1673ffffffffffffffffffffffffffffffffffffffff1681526020016003820180548060200260200160405190810160405280929190818152602001828054801561109357602002820191906000526020600020905b81548152602001906001019080831161107f575b505050505081525050905090565b60606006805480602002602001604051908101604052809291908181526020016000905b828210156111a35783829060005260206000209060020201604080519081016040529081600082018054600181600116156101000203166002900480601f0160208091040260200160405190810160405280929190818152602001828054600181600116156101000203166002900480156111815780601f1061115657610100808354040283529160200191611181565b820191906000526020600020905b81548152906001019060200180831161116457829003601f168201915b50505050508152602001600182015481525050815260200190600101906110c5565b50505050905090565b600580549050811015156111f5576040517f08c379a00000000000000000000000000000000000000000000000000000000081526004016111ec9061309c565b60405180910390fd5b600160058054905011151561123f576040517f08c379a0000000000000000000000000000000000000000000000000000000008152600401611236906131bc565b60405180910390fd5b60036002805490501015151561128a576040517f08c379a00000000000000000000000000000000000000000000000000000000081526004016112819061311c565b60405180910390fd5b6001809054906101000a900473ffffffffffffffffffffffffffffffffffffffff1673ffffffffffffffffffffffffffffffffffffffff163373ffffffffffffffffffffffffffffffffffffffff1614151561131b576040517f08c379a0000000000000000000000000000000000000000000000000000000008152600401611312906130dc565b60405180910390fd5b60001515600160009054906101000a900460ff161515141515611373576040517f08c379a000000000000000000000000000000000000000000000000000000000815260040161136a9061307c565b60405180910390fd5b60018060006101000a81548160ff021916908315150217905550600060068161139c919061229a565b5060006004816113ac91906122cc565b50806000819055506000600190505b60028054905081101561158b5760046040805190810160405280600015158152602001600060405190808252806020026020018201604052801561140e5781602001602082028038833980820191505090505b508152509080600181540180825580915050906001820390600052602060002090600202016000909192909190915060008201518160000160006101000a81548160ff02191690831515021790555060208201518160010190805190602001906114799291906121f8565b50505050600060028281548110151561148e57fe5b9060005260206000209060040201600301816114aa91906122fe565b506002818154811015156114ba57fe5b9060005260206000209060040201600301600182039080600181540180825580915050906001820390600052602060002001600090919290919091505550600160028281548110151561150957fe5b906000526020600020906004020160000181905550600060028281548110151561152f57fe5b906000526020600020906004020160020160006101000a81548173ffffffffffffffffffffffffffffffffffffffff021916908373ffffffffffffffffffffffffffffffffffffffff16021790555080806001019150506113bb565b5060008090505b6005805490508110156115d25760006005828154811015156115b057fe5b9060005260206000209060020201600101819055508080600101915050611592565b5050565b6006818154811015156115e557fe5b9060005260206000209060020201600091509050806000018054600181600116156101000203166002900480601f0160208091040260200160405190810160405280929190818152602001828054600181600116156101000203166002900480156116915780601f1061166657610100808354040283529160200191611691565b820191906000526020600020905b81548152906001019060200180831161167457829003601f168201915b5050505050908060010154905082565b60036020528060005260406000206000915090505481565b60606005805480602002602001604051908101604052809291908181526020016000905b828210156117bb5783829060005260206000209060020201604080519081016040529081600082018054600181600116156101000203166002900480601f0160208091040260200160405190810160405280929190818152602001828054600181600116156101000203166002900480156117995780601f1061176e57610100808354040283529160200191611799565b820191906000526020600020905b81548152906001019060200180831161177c57829003601f168201915b50505050508152602001600182015481525050815260200190600101906116dd565b50505050905090565b6002818154811015156117d357fe5b90600052602060002090600402016000915090508060000154908060010160009054906101000a900473ffffffffffffffffffffffffffffffffffffffff16908060020160009054906101000a900473ffffffffffffffffffffffffffffffffffffffff16905083565b60606002805480602002602001604051908101604052809291908181526020016000905b828210156119a2578382906000526020600020906004020160806040519081016040529081600082015481526020016001820160009054906101000a900473ffffffffffffffffffffffffffffffffffffffff1673ffffffffffffffffffffffffffffffffffffffff1673ffffffffffffffffffffffffffffffffffffffff1681526020016002820160009054906101000a900473ffffffffffffffffffffffffffffffffffffffff1673ffffffffffffffffffffffffffffffffffffffff1673ffffffffffffffffffffffffffffffffffffffff1681526020016003820180548060200260200160405190810160405280929190818152602001828054801561198a57602002820191906000526020600020905b815481526020019060010190808311611976575b50505050508152505081526020019060010190611861565b50505050905090565b6001809054906101000a900473ffffffffffffffffffffffffffffffffffffffff1673ffffffffffffffffffffffffffffffffffffffff163373ffffffffffffffffffffffffffffffffffffffff16141515611a3c576040517f08c379a0000000000000000000000000000000000000000000000000000000008152600401611a33906130dc565b60405180910390fd5b6000600581611a4b919061229a565b5060008090505b8151811015611aec57600560408051908101604052808484815181101515611a7657fe5b9060200190602002015181526020016000815250908060018154018082558091505090600182039060005260206000209060020201600090919290919091506000820151816000019080519060200190611ad192919061232a565b50602082015181600101555050508080600101915050611a52565b5050565b60606004805480602002602001604051908101604052809291908181526020016000905b82821015611bb957838290600052602060002090600202016040805190810160405290816000820160009054906101000a900460ff1615151515815260200160018201805480602002602001604051908101604052809291908181526020018280548015611ba157602002820191906000526020600020905b815481526020019060010190808311611b8d575b50505050508152505081526020019060010190611b14565b50505050905090565b6001809054906101000a900473ffffffffffffffffffffffffffffffffffffffff1673ffffffffffffffffffffffffffffffffffffffff163373ffffffffffffffffffffffffffffffffffffffff16141515611c53576040517f08c379a0000000000000000000000000000000000000000000000000000000008152600401611c4a906130dc565b60405180910390fd5b60011515600160009054906101000a900460ff161515141515611cab576040517f08c379a0000000000000000000000000000000000000000000000000000000008152600401611ca29061319c565b60405180910390fd5b6000600160006101000a81548160ff0219169083151502179055506000611cd061214b565b905060008090505b600580549050811015611d9a5781600582815481101515611cf557fe5b9060005260206000209060020201600101541415611d8d576006600582815481101515611d1e57fe5b90600052602060002090600202019080600181540180825580915050906001820390600052602060002090600202016000909192909190915060008201816000019080546001816001161561010002031660029004611d7e9291906123aa565b50600182015481600101555050505b8080600101915050611cd8565b5050565b60011515600160009054906101000a900460ff161515141515611df6576040517f08c379a0000000000000000000000000000000000000000000000000000000008152600401611ded906130bc565b60405180910390fd5b600081905060006002600360003373ffffffffffffffffffffffffffffffffffffffff1673ffffffffffffffffffffffffffffffffffffffff16815260200190815260200160002054815481101515611e4b57fe5b90600052602060002090600402019050611e63610900565b816000018190555060008160000154118015611e83575081816000015410155b1515611ec4576040517f08c379a0000000000000000000000000000000000000000000000000000000008152600401611ebb9061305c565b60405180910390fd5b6000548451141515611f0b576040517f08c379a0000000000000000000000000000000000000000000000000000000008152600401611f029061315c565b60405180910390fd5b60008090505b8160030180549050811015611fe357600060048360030183815481101515611f3557fe5b9060005260206000200154815481101515611f4c57fe5b906000526020600020906002020190508060000160009054906101000a900460ff16158015611f7b5750600084115b15611fd55760018160000160006101000a81548160ff02191690831515021790555083806001900394505082600001600081548092919060019003919050555085816001019080519060200190611fd3929190612431565b505b508080600101915050611f11565b5060008090505b845181101561204557836005868381518110151561200457fe5b9060200190602002015181548110151561201a57fe5b9060005260206000209060020201600101600082825401925050819055508080600101915050611fea565b5060008090505b60028054905081101561214457600080905060008090505b60028381548110151561207357fe5b9060005260206000209060040201600301805490508110156121105760046002848154811015156120a057fe5b9060005260206000209060040201600301828154811015156120be57fe5b90600052602060002001548154811015156120d557fe5b906000526020600020906002020160000160009054906101000a900460ff1615156121035781806001019250505b8080600101915050612064565b508060028381548110151561212157fe5b90600052602060002090600402016000018190555050808060010191505061204c565b5050505050565b6000806000905060008090505b6005805490508110156121be578160058281548110151561217557fe5b90600052602060002090600202016001015411156121b15760058181548110151561219c57fe5b90600052602060002090600202016001015491505b8080600101915050612158565b508091505090565b8154818355818111156121f3576004028160040283600052602060002091820191016121f2919061247e565b5b505050565b828054828255906000526020600020908101928215612234579160200282015b82811115612233578251825591602001919060010190612218565b5b5090506122419190612503565b5090565b60806040519081016040528060008152602001600073ffffffffffffffffffffffffffffffffffffffff168152602001600073ffffffffffffffffffffffffffffffffffffffff168152602001606081525090565b8154818355818111156122c7576002028160020283600052602060002091820191016122c69190612528565b5b505050565b8154818355818111156122f9576002028160020283600052602060002091820191016122f8919061255f565b5b505050565b815481835581811115612325578183600052602060002091820191016123249190612503565b5b505050565b828054600181600116156101000203166002900490600052602060002090601f016020900481019282601f1061236b57805160ff1916838001178555612399565b82800160010185558215612399579182015b8281111561239857825182559160200191906001019061237d565b5b5090506123a69190612503565b5090565b828054600181600116156101000203166002900490600052602060002090601f016020900481019282601f106123e35780548555612420565b8280016001018555821561242057600052602060002091601f016020900482015b8281111561241f578254825591600101919060010190612404565b5b50905061242d9190612503565b5090565b82805482825590600052602060002090810192821561246d579160200282015b8281111561246c578251825591602001919060010190612451565b5b50905061247a9190612503565b5090565b61250091905b808211156124fc576000808201600090556001820160006101000a81549073ffffffffffffffffffffffffffffffffffffffff02191690556002820160006101000a81549073ffffffffffffffffffffffffffffffffffffffff02191690556003820160006124f391906125a2565b50600401612484565b5090565b90565b61252591905b80821115612521576000816000905550600101612509565b5090565b90565b61255c91905b80821115612558576000808201600061254791906125c3565b60018201600090555060020161252e565b5090565b90565b61259f91905b8082111561259b57600080820160006101000a81549060ff021916905560018201600061259291906125a2565b50600201612565565b5090565b90565b50805460008255906000526020600020908101906125c09190612503565b50565b50805460018160011615610100020316600290046000825580601f106125e95750612608565b601f0160209004906000526020600020908101906126079190612503565b5b50565b60006126178235613428565b905092915050565b600082601f830112151561263257600080fd5b81356126456126408261329d565b613270565b9150818183526020840193506020810190508385602084028201111561266a57600080fd5b60005b8381101561269a5781612680888261260b565b84526020840193506020830192505060018101905061266d565b5050505092915050565b600082601f83011215156126b757600080fd5b81356126ca6126c5826132c5565b613270565b9150818183526020840193506020810190508360005b8381101561271057813586016126f6888261279f565b8452602084019350602083019250506001810190506126e0565b5050505092915050565b600082601f830112151561272d57600080fd5b813561274061273b826132ed565b613270565b9150818183526020840193506020810190508385602084028201111561276557600080fd5b60005b83811015612795578161277b88826127f5565b845260208401935060208301925050600181019050612768565b5050505092915050565b600082601f83011215156127b257600080fd5b81356127c56127c082613315565b613270565b915080825260208301602083018583830111156127e157600080fd5b6127ec838284613444565b50505092915050565b6000612801823561343a565b905092915050565b60006020828403121561281b57600080fd5b60006128298482850161260b565b91505092915050565b60006020828403121561284457600080fd5b600082013567ffffffffffffffff81111561285e57600080fd5b61286a8482850161261f565b91505092915050565b60006020828403121561288557600080fd5b600082013567ffffffffffffffff81111561289f57600080fd5b6128ab848285016126a4565b91505092915050565b600080604083850312156128c757600080fd5b600083013567ffffffffffffffff8111156128e157600080fd5b6128ed8582860161271a565b92505060206128fe858286016127f5565b9150509250929050565b60006020828403121561291a57600080fd5b6000612928848285016127f5565b91505092915050565b61293a816133e0565b82525050565b600061294b82613375565b8084526020840193508360208202850161296485613341565b60005b8481101561299d57838303885261297f838351612e41565b925061298a826133ac565b9150602088019750600181019050612967565b508196508694505050505092915050565b60006129b982613380565b808452602084019350836020820285016129d28561334e565b60005b84811015612a0b5783830388526129ed838351612e7e565b92506129f8826133b9565b91506020880197506001810190506129d5565b508196508694505050505092915050565b6000612a278261338b565b80845260208401935083602082028501612a408561335b565b60005b84811015612a79578383038852612a5b838351612f1e565b9250612a66826133c6565b9150602088019750600181019050612a43565b508196508694505050505092915050565b6000612a9582613396565b808452602084019350612aa783613368565b60005b82811015612ad957612abd868351612f81565b612ac6826133d3565b9150602086019550600181019050612aaa565b50849250505092915050565b612aee816133f2565b82525050565b6000612aff826133a1565b808452612b13816020860160208601613453565b612b1c81613486565b602085010191505092915050565b6000601482527f486173206e6f20726967687420746f20766f74650000000000000000000000006020830152604082019050919050565b6000602382527f4261752063752064616e67206469656e2072612c206b6574207468756320747260208301527f756f6300000000000000000000000000000000000000000000000000000000006040830152606082019050919050565b6000602482527f736f206e67756f692074726f6e6720312070686965752062617520717561206e60208301527f68696575000000000000000000000000000000000000000000000000000000006040830152606082019050919050565b6000601a82527f4261752063752064616e67206b686f6e6720206469656e2072610000000000006020830152604082019050919050565b6000601482527f4e67756f6920677569206b686f6e672064756e670000000000000000000000006020830152604082019050919050565b6000601a82527f4368752074696368206b686f6e672064756f63206261752063750000000000006020830152604082019050919050565b6000601082527f536f2063752074726920717561206974000000000000000000000000000000006020830152604082019050919050565b6000601f82527f44656c6567617465206163636f756e74206e6f74206973206120766f746572006020830152604082019050919050565b6000601c82527f536f206e67756f692064756f6320626175206b686f6e672064756e67000000006020830152604082019050919050565b6000601982527f466f756e64206c6f6f7020696e2064656c65676174696f6e2e000000000000006020830152604082019050919050565b6000601b82527f4261752063752064616e67206b686f6f6e6720206469656e20726100000000006020830152604082019050919050565b6000601582527f536f20756e67206375207669656e2071756120697400000000000000000000006020830152604082019050919050565b6000601e82527f53656c662d64656c65676174696f6e20697320646973616c6c6f7765642e00006020830152604082019050919050565b6000604083016000830151612e596000860182612ae5565b5060208301518482036020860152612e718282612a8a565b9150508091505092915050565b60006040830160008301518482036000860152612e9b8282612af4565b9150506020830151612eb06020860182612f81565b508091505092915050565b6000608083016000830151612ed36000860182612f81565b506020830151612ee66020860182612931565b506040830151612ef96040860182612931565b5060608301518482036060860152612f118282612a8a565b9150508091505092915050565b6000608083016000830151612f366000860182612f81565b506020830151612f496020860182612931565b506040830151612f5c6040860182612931565b5060608301518482036060860152612f748282612a8a565b9150508091505092915050565b612f8a8161341e565b82525050565b6000602082019050612fa56000830184612931565b92915050565b60006020820190508181036000830152612fc58184612940565b905092915050565b60006020820190508181036000830152612fe781846129ae565b905092915050565b600060208201905081810360008301526130098184612a1c565b905092915050565b60006020820190506130266000830184612ae5565b92915050565b600060408201905081810360008301526130468185612af4565b90506130556020830184612f81565b9392505050565b6000602082019050818103600083015261307581612b2a565b9050919050565b6000602082019050818103600083015261309581612b61565b9050919050565b600060208201905081810360008301526130b581612bbe565b9050919050565b600060208201905081810360008301526130d581612c1b565b9050919050565b600060208201905081810360008301526130f581612c52565b9050919050565b6000602082019050818103600083015261311581612c89565b9050919050565b6000602082019050818103600083015261313581612cc0565b9050919050565b6000602082019050818103600083015261315581612cf7565b9050919050565b6000602082019050818103600083015261317581612d2e565b9050919050565b6000602082019050818103600083015261319581612d65565b9050919050565b600060208201905081810360008301526131b581612d9c565b9050919050565b600060208201905081810360008301526131d581612dd3565b9050919050565b600060208201905081810360008301526131f581612e0a565b9050919050565b600060208201905081810360008301526132168184612ebb565b905092915050565b60006020820190506132336000830184612f81565b92915050565b600060608201905061324e6000830186612f81565b61325b6020830185612931565b6132686040830184612931565b949350505050565b6000604051905081810181811067ffffffffffffffff8211171561329357600080fd5b8060405250919050565b600067ffffffffffffffff8211156132b457600080fd5b602082029050602081019050919050565b600067ffffffffffffffff8211156132dc57600080fd5b602082029050602081019050919050565b600067ffffffffffffffff82111561330457600080fd5b602082029050602081019050919050565b600067ffffffffffffffff82111561332c57600080fd5b601f19601f8301169050602081019050919050565b6000602082019050919050565b6000602082019050919050565b6000602082019050919050565b6000602082019050919050565b600081519050919050565b600081519050919050565b600081519050919050565b600081519050919050565b600081519050919050565b6000602082019050919050565b6000602082019050919050565b6000602082019050919050565b6000602082019050919050565b60006133eb826133fe565b9050919050565b60008115159050919050565b600073ffffffffffffffffffffffffffffffffffffffff82169050919050565b6000819050919050565b6000613433826133fe565b9050919050565b6000819050919050565b82818337600083830152505050565b60005b83811015613471578082015181840152602081019050613456565b83811115613480576000848401525b50505050565b6000601f19601f830116905091905056fea265627a7a72305820a44ea35c8caacd8a1ce8a0a2381045d4df7a44842c7d5926bc829011eae01fbf6c6578706572696d656e74616cf50037",
  "source": "pragma solidity >=0.4.22 <0.7.0;\r\npragma experimental ABIEncoderV2;\r\n/// @title Voting with delegation.\r\ncontract Election {\r\n    uint public numberProposal = 1;  //mt ngi bu ti a  bao nhiu ng c vin\r\n    bool public isVoting = false; // trng thi ca cuc  bu c\r\n\r\n\r\n    struct Voter {//ngi vote (c kh nng vote hoc u quyn vote cho ngi khc)\r\n        uint weight;\r\n        address addr;\r\n        address delegate;  //a ch ca ngi ca ngi y quyn\r\n        uint[] ballots;    // cc v ngi ny ang gi\r\n    }\r\n\r\n    struct Ballot {  // phiu bu\r\n        bool voted;\r\n        uint[] voters; //nhng ngi c bu trong 1 phiu\r\n    }\r\n\r\n    struct Proposal {//ng c vin\r\n        string name;\r\n        uint voteCount; // number of accumulated votes\r\n    }\r\n\r\n    address public chairperson; //ngi t chc(c kh nng cp quyn vote)\r\n    Voter[] public voterArray;  // danh sch ngi c tri (bt u t tr 1)\r\n    mapping(address => uint) public voters;\r\n    Ballot[] public ballots;\r\n    Proposal[] public proposals; //to danh sch ng c vin ( di dng chui dng bytes32)\r\n    Proposal[] public winners;\r\n\r\n    constructor() public {\r\n        chairperson = msg.sender;\r\n        voterArray.push(Voter(0, address(0), address(0), new uint[](0)));  // phn t 0 l b i\r\n    }\r\n\r\n    // bt u cuc bu c\r\n    function start(uint proposalInBallot) public {\r\n        require(proposalInBallot < proposals.length, \"so nguoi trong 1 phieu bau qua nhieu\");\r\n        require(proposals.length > 1, \"So ung cu vien qua it\");\r\n        require(voterArray.length >= 3, \"So cu tri qua it\");\r\n        require(msg.sender == chairperson, \"Nguoi gui khong dung\");\r\n        require(isVoting == false, \"Bau cu dang dien ra, ket thuc truoc\");\r\n        isVoting = true;\r\n        winners.length = 0;\r\n        ballots.length = 0;\r\n        numberProposal = proposalInBallot;\r\n        for (uint i = 1; i < voterArray.length; i++) {\r\n            ballots.push(Ballot(false, new uint[](0)));\r\n            voterArray[i].ballots.length = 0;\r\n            voterArray[i].ballots.push(i - 1);\r\n            voterArray[i].weight = 1;\r\n            voterArray[i].delegate = address(0);\r\n        }\r\n        for (uint i = 0; i < proposals.length; i++) {\r\n            proposals[i].voteCount = 0;\r\n        }\r\n    }\r\n\r\n    // kt thc cuc bu c\r\n    function end() public {\r\n        require(msg.sender == chairperson, \"Nguoi gui khong dung\");\r\n        require(isVoting == true, \"Bau cu dang khoong  dien ra\");\r\n        isVoting = false;\r\n        uint value = winningProposal();\r\n        for (uint i = 0; i < proposals.length; i++) {\r\n            if (proposals[i].voteCount == value) {\r\n                winners.push(proposals[i]);\r\n            }\r\n        }\r\n    }\r\n\r\n\r\n    // Delegate your vote to the voter `to`\r\n    function delegate(address to) public {\r\n        require(isVoting == true, \"Bau cu dang khoong  dien ra\");\r\n        // assigns reference\r\n        Voter storage sender = voterArray[voters[msg.sender]];\r\n        require(to != msg.sender, \"Self-delegation is disallowed.\");\r\n        require(voters[to] != 0, \"Delegate account not is a voter\");\r\n        while (voterArray[voters[to]].delegate != address(0)) {\r\n            to = voterArray[voters[to]].delegate;\r\n            // We found a loop in the delegation, not allowed.\r\n            require(to != msg.sender, \"Found loop in delegation.\");\r\n        }\r\n        sender.delegate = to;\r\n        Voter storage delegate_ = voterArray[voters[to]];\r\n        // ngi y quyn c th s dng ton b s phiu sender c\r\n        for (uint i = 0; i < sender.ballots.length; i++) {\r\n            bool exist = false;\r\n            for (uint j = 0; j < delegate_.ballots.length; j++) {\r\n                if (sender.ballots[i] == delegate_.ballots[j]) {\r\n                    exist = true;\r\n                    break;\r\n                }\r\n            }\r\n            if (!exist) {\r\n                delegate_.weight += 1;\r\n                delegate_.ballots.push(sender.ballots[i]);\r\n            }\r\n        }\r\n    }\r\n\r\n\r\n    // Give your vote (including votes delegated to you)\r\n    function vote(uint[] memory array, uint ballotToVote) public {\r\n        require(isVoting == true, \"Bau cu dang khong  dien ra\");\r\n        uint count = ballotToVote;\r\n        Voter storage sender = voterArray[voters[msg.sender]];\r\n        sender.weight = getRemainBallot();\r\n        // lay so luong phieu con dung duoc\r\n        require(sender.weight > 0 && sender.weight >= count, \"Has no right to vote\");\r\n        require(array.length == numberProposal, \"So nguoi duoc bau khong dung\");\r\n        for (uint i = 0; i < sender.ballots.length; i++) {\r\n            Ballot storage temp = ballots[sender.ballots[i]];\r\n            if (!temp.voted && count > 0) {\r\n                temp.voted = true;\r\n                count --;\r\n                sender.weight --;\r\n                temp.voters = array;\r\n            }\r\n        }\r\n        // cng phiu bu cho cc ng c vin\r\n        for (uint j = 0; j < array.length; j++) {\r\n            proposals[array[j]].voteCount += ballotToVote;\r\n        }\r\n        // tnh li weight cho cc voter\r\n        for (uint i = 0; i < voterArray.length; i++) {\r\n            uint weight = 0;\r\n            for (uint j = 0; j < voterArray[i].ballots.length; j++) {\r\n                if (!ballots[voterArray[i].ballots[j]].voted) {\r\n                    weight++;\r\n                }\r\n            }\r\n            voterArray[i].weight = weight;\r\n        }\r\n    }\r\n\r\n    // m s phiu cn li ca 1 ngi c tri\r\n    function getRemainBallot() public view returns (uint) {\r\n        Voter storage sender = voterArray[voters[msg.sender]];\r\n        uint count = 0;\r\n        for (uint i = 0; i < sender.ballots.length; i++) {\r\n            if (!ballots[sender.ballots[i]].voted) {\r\n                count++;\r\n            }\r\n        }\r\n        return count;\r\n    }\r\n\r\n    // tm s phiu ca ngi c bu nhiu nht\r\n    function winningProposal() private view returns (uint){\r\n        uint winningVoteCount = 0;\r\n        for (uint p = 0; p < proposals.length; p++) {\r\n            if (proposals[p].voteCount > winningVoteCount) {\r\n                winningVoteCount = proposals[p].voteCount;\r\n            }\r\n        }\r\n        return winningVoteCount;\r\n    }\r\n\r\n\r\n    // to tt c cc c tri\r\n    function setVoter(address[] memory addresses) public {\r\n        require(msg.sender == chairperson, \"Nguoi gui khong dung\");\r\n        voterArray.length = 1;\r\n        for (uint i = 0; i < addresses.length; i++) {\r\n            require(addresses[i] != chairperson, \"Chu tich khong duoc bau cu\");\r\n            voterArray.push(Voter(0, addresses[i], address(0), new uint[](0)));\r\n            voters[addresses[i]] = i + 1;\r\n        }\r\n    }\r\n\r\n    // to cc ng c vin\r\n    function setProposal(string[] memory names) public {\r\n        require(msg.sender == chairperson, \"Nguoi gui khong dung\");\r\n        proposals.length = 0;\r\n        for (uint i = 0; i < names.length; i++) {\r\n            proposals.push(Proposal({name : names[i], voteCount : 0}));\r\n        }\r\n    }\r\n\r\n\r\n    function getProposal() public view returns (Proposal[] memory) {\r\n        return proposals;\r\n    }\r\n\r\n    function getVoters() public view returns (Voter[] memory) {\r\n        return voterArray;\r\n    }\r\n\r\n    function getMyself() public view returns (Voter memory) {\r\n        return voterArray[voters[msg.sender]];\r\n    }\r\n\r\n    function getBallots() public view returns (Ballot[] memory) {\r\n        return ballots;\r\n    }\r\n\r\n    function getWinner() public view returns (Proposal[] memory) {\r\n        return winners;\r\n    }\r\n}",
  "sourcePath": "D:/project/react-js/he-phan-tan-react-app/contracts/src/Election.sol",
  "compiler": {
    "name": "solc",
    "version": "0.5.0+commit.1d4f565a.Emscripten.clang"
  },
  "schemaVersion": "3.0.9",
  "updatedAt": "2019-05-28T17:39:38.998Z",
  "devdoc": {
    "methods": {},
    "title": "Voting with delegation."
  },
  "userdoc": {
    "methods": {}
  }
}