{
  "contractName": "Election",
  "abi": [
    {
      "inputs": [],
      "payable": false,
      "stateMutability": "nonpayable",
      "type": "constructor"
    },
    {
      "constant": true,
      "inputs": [
        {
          "internalType": "uint256",
          "name": "",
          "type": "uint256"
        }
      ],
      "name": "ballots",
      "outputs": [
        {
          "internalType": "bool",
          "name": "voted",
          "type": "bool"
        }
      ],
      "payable": false,
      "stateMutability": "view",
      "type": "function"
    },
    {
      "constant": true,
      "inputs": [],
      "name": "chairperson",
      "outputs": [
        {
          "internalType": "address",
          "name": "",
          "type": "address"
        }
      ],
      "payable": false,
      "stateMutability": "view",
      "type": "function"
    },
    {
      "constant": true,
      "inputs": [],
      "name": "isVoting",
      "outputs": [
        {
          "internalType": "bool",
          "name": "",
          "type": "bool"
        }
      ],
      "payable": false,
      "stateMutability": "view",
      "type": "function"
    },
    {
      "constant": true,
      "inputs": [],
      "name": "numberProposal",
      "outputs": [
        {
          "internalType": "uint256",
          "name": "",
          "type": "uint256"
        }
      ],
      "payable": false,
      "stateMutability": "view",
      "type": "function"
    },
    {
      "constant": true,
      "inputs": [
        {
          "internalType": "uint256",
          "name": "",
          "type": "uint256"
        }
      ],
      "name": "proposals",
      "outputs": [
        {
          "internalType": "string",
          "name": "name",
          "type": "string"
        },
        {
          "internalType": "uint256",
          "name": "voteCount",
          "type": "uint256"
        }
      ],
      "payable": false,
      "stateMutability": "view",
      "type": "function"
    },
    {
      "constant": true,
      "inputs": [
        {
          "internalType": "uint256",
          "name": "",
          "type": "uint256"
        }
      ],
      "name": "voterArray",
      "outputs": [
        {
          "internalType": "uint256",
          "name": "weight",
          "type": "uint256"
        },
        {
          "internalType": "address",
          "name": "addr",
          "type": "address"
        },
        {
          "internalType": "address",
          "name": "delegate",
          "type": "address"
        }
      ],
      "payable": false,
      "stateMutability": "view",
      "type": "function"
    },
    {
      "constant": true,
      "inputs": [
        {
          "internalType": "address",
          "name": "",
          "type": "address"
        }
      ],
      "name": "voters",
      "outputs": [
        {
          "internalType": "uint256",
          "name": "",
          "type": "uint256"
        }
      ],
      "payable": false,
      "stateMutability": "view",
      "type": "function"
    },
    {
      "constant": true,
      "inputs": [
        {
          "internalType": "uint256",
          "name": "",
          "type": "uint256"
        }
      ],
      "name": "winners",
      "outputs": [
        {
          "internalType": "string",
          "name": "name",
          "type": "string"
        },
        {
          "internalType": "uint256",
          "name": "voteCount",
          "type": "uint256"
        }
      ],
      "payable": false,
      "stateMutability": "view",
      "type": "function"
    },
    {
      "constant": false,
      "inputs": [
        {
          "internalType": "uint256",
          "name": "proposalInBallot",
          "type": "uint256"
        }
      ],
      "name": "start",
      "outputs": [],
      "payable": false,
      "stateMutability": "nonpayable",
      "type": "function"
    },
    {
      "constant": false,
      "inputs": [],
      "name": "end",
      "outputs": [],
      "payable": false,
      "stateMutability": "nonpayable",
      "type": "function"
    },
    {
      "constant": false,
      "inputs": [
        {
          "internalType": "address",
          "name": "to",
          "type": "address"
        }
      ],
      "name": "delegate",
      "outputs": [],
      "payable": false,
      "stateMutability": "nonpayable",
      "type": "function"
    },
    {
      "constant": false,
      "inputs": [
        {
          "internalType": "uint256[]",
          "name": "array",
          "type": "uint256[]"
        },
        {
          "internalType": "uint256",
          "name": "ballotToVote",
          "type": "uint256"
        }
      ],
      "name": "vote",
      "outputs": [],
      "payable": false,
      "stateMutability": "nonpayable",
      "type": "function"
    },
    {
      "constant": true,
      "inputs": [],
      "name": "getRemainBallot",
      "outputs": [
        {
          "internalType": "uint256",
          "name": "",
          "type": "uint256"
        }
      ],
      "payable": false,
      "stateMutability": "view",
      "type": "function"
    },
    {
      "constant": false,
      "inputs": [
        {
          "internalType": "address[]",
          "name": "addresses",
          "type": "address[]"
        }
      ],
      "name": "setVoter",
      "outputs": [],
      "payable": false,
      "stateMutability": "nonpayable",
      "type": "function"
    },
    {
      "constant": false,
      "inputs": [
        {
          "internalType": "string[]",
          "name": "names",
          "type": "string[]"
        }
      ],
      "name": "setProposal",
      "outputs": [],
      "payable": false,
      "stateMutability": "nonpayable",
      "type": "function"
    },
    {
      "constant": true,
      "inputs": [],
      "name": "getProposal",
      "outputs": [
        {
          "components": [
            {
              "internalType": "string",
              "name": "name",
              "type": "string"
            },
            {
              "internalType": "uint256",
              "name": "voteCount",
              "type": "uint256"
            }
          ],
          "internalType": "struct Election.Proposal[]",
          "name": "",
          "type": "tuple[]"
        }
      ],
      "payable": false,
      "stateMutability": "view",
      "type": "function"
    },
    {
      "constant": true,
      "inputs": [],
      "name": "getVoters",
      "outputs": [
        {
          "components": [
            {
              "internalType": "uint256",
              "name": "weight",
              "type": "uint256"
            },
            {
              "internalType": "address",
              "name": "addr",
              "type": "address"
            },
            {
              "internalType": "address",
              "name": "delegate",
              "type": "address"
            },
            {
              "internalType": "uint256[]",
              "name": "ballots",
              "type": "uint256[]"
            }
          ],
          "internalType": "struct Election.Voter[]",
          "name": "",
          "type": "tuple[]"
        }
      ],
      "payable": false,
      "stateMutability": "view",
      "type": "function"
    },
    {
      "constant": true,
      "inputs": [],
      "name": "getMyself",
      "outputs": [
        {
          "components": [
            {
              "internalType": "uint256",
              "name": "weight",
              "type": "uint256"
            },
            {
              "internalType": "address",
              "name": "addr",
              "type": "address"
            },
            {
              "internalType": "address",
              "name": "delegate",
              "type": "address"
            },
            {
              "internalType": "uint256[]",
              "name": "ballots",
              "type": "uint256[]"
            }
          ],
          "internalType": "struct Election.Voter",
          "name": "",
          "type": "tuple"
        }
      ],
      "payable": false,
      "stateMutability": "view",
      "type": "function"
    },
    {
      "constant": true,
      "inputs": [],
      "name": "getBallots",
      "outputs": [
        {
          "components": [
            {
              "internalType": "bool",
              "name": "voted",
              "type": "bool"
            },
            {
              "internalType": "uint256[]",
              "name": "voters",
              "type": "uint256[]"
            }
          ],
          "internalType": "struct Election.Ballot[]",
          "name": "",
          "type": "tuple[]"
        }
      ],
      "payable": false,
      "stateMutability": "view",
      "type": "function"
    },
    {
      "constant": true,
      "inputs": [],
      "name": "getWinner",
      "outputs": [
        {
          "components": [
            {
              "internalType": "string",
              "name": "name",
              "type": "string"
            },
            {
              "internalType": "uint256",
              "name": "voteCount",
              "type": "uint256"
            }
          ],
          "internalType": "struct Election.Proposal[]",
          "name": "",
          "type": "tuple[]"
        }
      ],
      "payable": false,
      "stateMutability": "view",
      "type": "function"
    }
  ],
  "bytecode": "0x608060405260016000556000600160006101000a81548160ff0219169083151502179055503480156200003157600080fd5b50336001806101000a81548173ffffffffffffffffffffffffffffffffffffffff021916908373ffffffffffffffffffffffffffffffffffffffff1602179055506002604051806080016040528060008152602001600073ffffffffffffffffffffffffffffffffffffffff168152602001600073ffffffffffffffffffffffffffffffffffffffff1681526020016000604051908082528060200260200182016040528015620000f15781602001602082028038833980820191505090505b50815250908060018154018082558091505090600182039060005260206000209060040201600090919290919091506000820151816000015560208201518160010160006101000a81548173ffffffffffffffffffffffffffffffffffffffff021916908373ffffffffffffffffffffffffffffffffffffffff16021790555060408201518160020160006101000a81548173ffffffffffffffffffffffffffffffffffffffff021916908373ffffffffffffffffffffffffffffffffffffffff1602179055506060820151816003019080519060200190620001d6929190620001e0565b505050506200025a565b8280548282559060005260206000209081019282156200021f579160200282015b828111156200021e57825182559160200191906001019062000201565b5b5090506200022e919062000232565b5090565b6200025791905b808211156200025357600081600090555060010162000239565b5090565b90565b613534806200026a6000396000f3fe608060405234801561001057600080fd5b506004361061012c5760003560e01c806395805dad116100ad578063cdd7225311610071578063cdd722531461034b578063d8c7c63814610369578063eb87c6dc14610385578063efbe1c1c146103a3578063f429af19146103ad5761012c565b806395805dad1461027e578063a2fb11751461029a578063a3ec138d146102cb578063b9e2bea0146102fb578063c279919f146103195761012c565b80634d93768f116100f45780634d93768f146101d85780635c19a95c146101f65780635c632b381461021257806373669754146102425780638e7ea5b2146102605761012c565b8063013cf08b146101315780630f01ae57146101625780631bbef399146101805780631e48ec051461019e5780632e4176cf146101ba575b600080fd5b61014b60048036036101469190810190612794565b6103c9565b604051610159929190613002565b60405180910390f35b61016a610492565b60405161017791906131f4565b60405180910390f35b610188610498565b6040516101959190612fe7565b60405180910390f35b6101b860048036036101b391908101906126be565b6104ab565b005b6101c26107de565b6040516101cf9190612f66565b60405180910390f35b6101e0610803565b6040516101ed91906131f4565b60405180910390f35b610210600480360361020b9190810190612695565b6108e4565b005b61022c60048036036102279190810190612794565b610dc5565b6040516102399190612fe7565b60405180910390f35b61024a610dfd565b60405161025791906131d2565b60405180910390f35b610268610f7d565b6040516102759190612fa3565b60405180910390f35b61029860048036036102939190810190612794565b611088565b005b6102b460048036036102af9190810190612794565b61149e565b6040516102c2929190613002565b60405180910390f35b6102e560048036036102e09190810190612695565b611567565b6040516102f291906131f4565b60405180910390f35b61030361157f565b6040516103109190612fa3565b60405180910390f35b610333600480360361032e9190810190612794565b61168a565b6040516103429392919061320f565b60405180910390f35b610353611701565b6040516103609190612fc5565b60405180910390f35b610383600480360361037e91908101906126ff565b61186e565b005b61038d6119ad565b60405161039a9190612f81565b60405180910390f35b6103ab611a7f565b005b6103c760048036036103c29190810190612740565b611c53565b005b600581815481106103d657fe5b9060005260206000209060020201600091509050806000018054600181600116156101000203166002900480601f0160208091040260200160405190810160405280929190818152602001828054600181600116156101000203166002900480156104825780601f1061045757610100808354040283529160200191610482565b820191906000526020600020905b81548152906001019060200180831161046557829003601f168201915b5050505050908060010154905082565b60005481565b600160009054906101000a900460ff1681565b6001809054906101000a900473ffffffffffffffffffffffffffffffffffffffff1673ffffffffffffffffffffffffffffffffffffffff163373ffffffffffffffffffffffffffffffffffffffff161461053a576040517f08c379a0000000000000000000000000000000000000000000000000000000008152600401610531906130b2565b60405180910390fd5b60016002816105499190612059565b5060008090505b81518110156107da576001809054906101000a900473ffffffffffffffffffffffffffffffffffffffff1673ffffffffffffffffffffffffffffffffffffffff1682828151811061059d57fe5b602002602001015173ffffffffffffffffffffffffffffffffffffffff1614156105fc576040517f08c379a00000000000000000000000000000000000000000000000000000000081526004016105f3906130d2565b60405180910390fd5b600260405180608001604052806000815260200184848151811061061c57fe5b602002602001015173ffffffffffffffffffffffffffffffffffffffff168152602001600073ffffffffffffffffffffffffffffffffffffffff168152602001600060405190808252806020026020018201604052801561068c5781602001602082028038833980820191505090505b50815250908060018154018082558091505090600182039060005260206000209060040201600090919290919091506000820151816000015560208201518160010160006101000a81548173ffffffffffffffffffffffffffffffffffffffff021916908373ffffffffffffffffffffffffffffffffffffffff16021790555060408201518160020160006101000a81548173ffffffffffffffffffffffffffffffffffffffff021916908373ffffffffffffffffffffffffffffffffffffffff160217905550606082015181600301908051906020019061076f92919061208b565b50505050600181016003600084848151811061078757fe5b602002602001015173ffffffffffffffffffffffffffffffffffffffff1673ffffffffffffffffffffffffffffffffffffffff168152602001908152602001600020819055508080600101915050610550565b5050565b6001809054906101000a900473ffffffffffffffffffffffffffffffffffffffff1681565b6000806002600360003373ffffffffffffffffffffffffffffffffffffffff1673ffffffffffffffffffffffffffffffffffffffff168152602001908152602001600020548154811061085257fe5b90600052602060002090600402019050600080905060008090505b82600301805490508110156108db57600483600301828154811061088d57fe5b9060005260206000200154815481106108a257fe5b906000526020600020906002020160000160009054906101000a900460ff166108ce5781806001019250505b808060010191505061086d565b50809250505090565b60011515600160009054906101000a900460ff1615151461093a576040517f08c379a000000000000000000000000000000000000000000000000000000000815260040161093190613172565b60405180910390fd5b60006002600360003373ffffffffffffffffffffffffffffffffffffffff1673ffffffffffffffffffffffffffffffffffffffff168152602001908152602001600020548154811061098857fe5b906000526020600020906004020190503373ffffffffffffffffffffffffffffffffffffffff168273ffffffffffffffffffffffffffffffffffffffff161415610a07576040517f08c379a00000000000000000000000000000000000000000000000000000000081526004016109fe906131b2565b60405180910390fd5b6000600360008473ffffffffffffffffffffffffffffffffffffffff1673ffffffffffffffffffffffffffffffffffffffff168152602001908152602001600020541415610a8a576040517f08c379a0000000000000000000000000000000000000000000000000000000008152600401610a8190613112565b60405180910390fd5b5b600073ffffffffffffffffffffffffffffffffffffffff166002600360008573ffffffffffffffffffffffffffffffffffffffff1673ffffffffffffffffffffffffffffffffffffffff1681526020019081526020016000205481548110610aef57fe5b906000526020600020906004020160020160009054906101000a900473ffffffffffffffffffffffffffffffffffffffff1673ffffffffffffffffffffffffffffffffffffffff1614610c30576002600360008473ffffffffffffffffffffffffffffffffffffffff1673ffffffffffffffffffffffffffffffffffffffff1681526020019081526020016000205481548110610b8857fe5b906000526020600020906004020160020160009054906101000a900473ffffffffffffffffffffffffffffffffffffffff1691503373ffffffffffffffffffffffffffffffffffffffff168273ffffffffffffffffffffffffffffffffffffffff161415610c2b576040517f08c379a0000000000000000000000000000000000000000000000000000000008152600401610c2290613152565b60405180910390fd5b610a8b565b818160020160006101000a81548173ffffffffffffffffffffffffffffffffffffffff021916908373ffffffffffffffffffffffffffffffffffffffff16021790555060006002600360008573ffffffffffffffffffffffffffffffffffffffff1673ffffffffffffffffffffffffffffffffffffffff1681526020019081526020016000205481548110610cc157fe5b9060005260206000209060040201905060008090505b8260030180549050811015610dbf57600080905060008090505b8360030180549050811015610d5057836003018181548110610d0f57fe5b9060005260206000200154856003018481548110610d2957fe5b90600052602060002001541415610d435760019150610d50565b8080600101915050610cf1565b5080610db1576001836000016000828254019250508190555082600301846003018381548110610d7c57fe5b906000526020600020015490806001815401808255809150509060018203906000526020600020016000909192909190915055505b508080600101915050610cd7565b50505050565b60048181548110610dd257fe5b90600052602060002090600202016000915090508060000160009054906101000a900460ff16905081565b610e056120d8565b6002600360003373ffffffffffffffffffffffffffffffffffffffff1673ffffffffffffffffffffffffffffffffffffffff1681526020019081526020016000205481548110610e5157fe5b9060005260206000209060040201604051806080016040529081600082015481526020016001820160009054906101000a900473ffffffffffffffffffffffffffffffffffffffff1673ffffffffffffffffffffffffffffffffffffffff1673ffffffffffffffffffffffffffffffffffffffff1681526020016002820160009054906101000a900473ffffffffffffffffffffffffffffffffffffffff1673ffffffffffffffffffffffffffffffffffffffff1673ffffffffffffffffffffffffffffffffffffffff16815260200160038201805480602002602001604051908101604052809291908181526020018280548015610f6f57602002820191906000526020600020905b815481526020019060010190808311610f5b575b505050505081525050905090565b60606006805480602002602001604051908101604052809291908181526020016000905b8282101561107f5783829060005260206000209060020201604051806040016040529081600082018054600181600116156101000203166002900480601f01602080910402602001604051908101604052809291908181526020018280546001816001161561010002031660029004801561105d5780601f106110325761010080835404028352916020019161105d565b820191906000526020600020905b81548152906001019060200180831161104057829003601f168201915b5050505050815260200160018201548152505081526020019060010190610fa1565b50505050905090565b60058054905081106110cf576040517f08c379a00000000000000000000000000000000000000000000000000000000081526004016110c690613072565b60405180910390fd5b600160058054905011611117576040517f08c379a000000000000000000000000000000000000000000000000000000000815260040161110e90613192565b60405180910390fd5b60036002805490501015611160576040517f08c379a0000000000000000000000000000000000000000000000000000000008152600401611157906130f2565b60405180910390fd5b6001809054906101000a900473ffffffffffffffffffffffffffffffffffffffff1673ffffffffffffffffffffffffffffffffffffffff163373ffffffffffffffffffffffffffffffffffffffff16146111ef576040517f08c379a00000000000000000000000000000000000000000000000000000000081526004016111e6906130b2565b60405180910390fd5b60001515600160009054906101000a900460ff16151514611245576040517f08c379a000000000000000000000000000000000000000000000000000000000815260040161123c90613052565b60405180910390fd5b60018060006101000a81548160ff021916908315150217905550600060068161126e919061212c565b50600060048161127e919061215e565b50806000819055506000600190505b600280549050811015611455576004604051806040016040528060001515815260200160006040519080825280602002602001820160405280156112e05781602001602082028038833980820191505090505b508152509080600181540180825580915050906001820390600052602060002090600202016000909192909190915060008201518160000160006101000a81548160ff021916908315150217905550602082015181600101908051906020019061134b92919061208b565b5050505060006002828154811061135e57fe5b90600052602060002090600402016003018161137a9190612190565b506002818154811061138857fe5b90600052602060002090600402016003016001820390806001815401808255809150509060018203906000526020600020016000909192909190915055506001600282815481106113d557fe5b9060005260206000209060040201600001819055506000600282815481106113f957fe5b906000526020600020906004020160020160006101000a81548173ffffffffffffffffffffffffffffffffffffffff021916908373ffffffffffffffffffffffffffffffffffffffff160217905550808060010191505061128d565b5060008090505b60058054905081101561149a5760006005828154811061147857fe5b906000526020600020906002020160010181905550808060010191505061145c565b5050565b600681815481106114ab57fe5b9060005260206000209060020201600091509050806000018054600181600116156101000203166002900480601f0160208091040260200160405190810160405280929190818152602001828054600181600116156101000203166002900480156115575780601f1061152c57610100808354040283529160200191611557565b820191906000526020600020905b81548152906001019060200180831161153a57829003601f168201915b5050505050908060010154905082565b60036020528060005260406000206000915090505481565b60606005805480602002602001604051908101604052809291908181526020016000905b828210156116815783829060005260206000209060020201604051806040016040529081600082018054600181600116156101000203166002900480601f01602080910402602001604051908101604052809291908181526020018280546001816001161561010002031660029004801561165f5780601f106116345761010080835404028352916020019161165f565b820191906000526020600020905b81548152906001019060200180831161164257829003601f168201915b50505050508152602001600182015481525050815260200190600101906115a3565b50505050905090565b6002818154811061169757fe5b90600052602060002090600402016000915090508060000154908060010160009054906101000a900473ffffffffffffffffffffffffffffffffffffffff16908060020160009054906101000a900473ffffffffffffffffffffffffffffffffffffffff16905083565b60606002805480602002602001604051908101604052809291908181526020016000905b828210156118655783829060005260206000209060040201604051806080016040529081600082015481526020016001820160009054906101000a900473ffffffffffffffffffffffffffffffffffffffff1673ffffffffffffffffffffffffffffffffffffffff1673ffffffffffffffffffffffffffffffffffffffff1681526020016002820160009054906101000a900473ffffffffffffffffffffffffffffffffffffffff1673ffffffffffffffffffffffffffffffffffffffff1673ffffffffffffffffffffffffffffffffffffffff1681526020016003820180548060200260200160405190810160405280929190818152602001828054801561184d57602002820191906000526020600020905b815481526020019060010190808311611839575b50505050508152505081526020019060010190611725565b50505050905090565b6001809054906101000a900473ffffffffffffffffffffffffffffffffffffffff1673ffffffffffffffffffffffffffffffffffffffff163373ffffffffffffffffffffffffffffffffffffffff16146118fd576040517f08c379a00000000000000000000000000000000000000000000000000000000081526004016118f4906130b2565b60405180910390fd5b600060058161190c919061212c565b5060008090505b81518110156119a9576005604051806040016040528084848151811061193557fe5b60200260200101518152602001600081525090806001815401808255809150509060018203906000526020600020906002020160009091929091909150600082015181600001908051906020019061198e9291906121bc565b50602082015181600101555050508080600101915050611913565b5050565b60606004805480602002602001604051908101604052809291908181526020016000905b82821015611a7657838290600052602060002090600202016040518060400160405290816000820160009054906101000a900460ff1615151515815260200160018201805480602002602001604051908101604052809291908181526020018280548015611a5e57602002820191906000526020600020905b815481526020019060010190808311611a4a575b505050505081525050815260200190600101906119d1565b50505050905090565b6001809054906101000a900473ffffffffffffffffffffffffffffffffffffffff1673ffffffffffffffffffffffffffffffffffffffff163373ffffffffffffffffffffffffffffffffffffffff1614611b0e576040517f08c379a0000000000000000000000000000000000000000000000000000000008152600401611b05906130b2565b60405180910390fd5b60011515600160009054906101000a900460ff16151514611b64576040517f08c379a0000000000000000000000000000000000000000000000000000000008152600401611b5b90613172565b60405180910390fd5b6000600160006101000a81548160ff0219169083151502179055506000611b89611fe2565b905060008090505b600580549050811015611c4f578160058281548110611bac57fe5b9060005260206000209060020201600101541415611c4257600660058281548110611bd357fe5b90600052602060002090600202019080600181540180825580915050906001820390600052602060002090600202016000909192909190915060008201816000019080546001816001161561010002031660029004611c3392919061223c565b50600182015481600101555050505b8080600101915050611b91565b5050565b60011515600160009054906101000a900460ff16151514611ca9576040517f08c379a0000000000000000000000000000000000000000000000000000000008152600401611ca090613092565b60405180910390fd5b600081905060006002600360003373ffffffffffffffffffffffffffffffffffffffff1673ffffffffffffffffffffffffffffffffffffffff1681526020019081526020016000205481548110611cfc57fe5b90600052602060002090600402019050611d14610803565b816000018190555060008160000154118015611d34575081816000015410155b611d73576040517f08c379a0000000000000000000000000000000000000000000000000000000008152600401611d6a90613032565b60405180910390fd5b600054845114611db8576040517f08c379a0000000000000000000000000000000000000000000000000000000008152600401611daf90613132565b60405180910390fd5b60008090505b8160030180549050811015611e8c5760006004836003018381548110611de057fe5b906000526020600020015481548110611df557fe5b906000526020600020906002020190508060000160009054906101000a900460ff16158015611e245750600084115b15611e7e5760018160000160006101000a81548160ff02191690831515021790555083806001900394505082600001600081548092919060019003919050555085816001019080519060200190611e7c9291906122c3565b505b508080600101915050611dbe565b5060008090505b8451811015611ee857836005868381518110611eab57fe5b602002602001015181548110611ebd57fe5b9060005260206000209060020201600101600082825401925050819055508080600101915050611e93565b5060008090505b600280549050811015611fdb57600080905060008090505b60028381548110611f1457fe5b906000526020600020906004020160030180549050811015611fa957600460028481548110611f3f57fe5b90600052602060002090600402016003018281548110611f5b57fe5b906000526020600020015481548110611f7057fe5b906000526020600020906002020160000160009054906101000a900460ff16611f9c5781806001019250505b8080600101915050611f07565b508060028381548110611fb857fe5b906000526020600020906004020160000181905550508080600101915050611eef565b5050505050565b6000806000905060008090505b60058054905081101561205157816005828154811061200a57fe5b9060005260206000209060020201600101541115612044576005818154811061202f57fe5b90600052602060002090600202016001015491505b8080600101915050611fef565b508091505090565b815481835581811115612086576004028160040283600052602060002091820191016120859190612310565b5b505050565b8280548282559060005260206000209081019282156120c7579160200282015b828111156120c65782518255916020019190600101906120ab565b5b5090506120d49190612395565b5090565b604051806080016040528060008152602001600073ffffffffffffffffffffffffffffffffffffffff168152602001600073ffffffffffffffffffffffffffffffffffffffff168152602001606081525090565b8154818355818111156121595760020281600202836000526020600020918201910161215891906123ba565b5b505050565b81548183558181111561218b5760020281600202836000526020600020918201910161218a91906123f1565b5b505050565b8154818355818111156121b7578183600052602060002091820191016121b69190612395565b5b505050565b828054600181600116156101000203166002900490600052602060002090601f016020900481019282601f106121fd57805160ff191683800117855561222b565b8280016001018555821561222b579182015b8281111561222a57825182559160200191906001019061220f565b5b5090506122389190612395565b5090565b828054600181600116156101000203166002900490600052602060002090601f016020900481019282601f1061227557805485556122b2565b828001600101855582156122b257600052602060002091601f016020900482015b828111156122b1578254825591600101919060010190612296565b5b5090506122bf9190612395565b5090565b8280548282559060005260206000209081019282156122ff579160200282015b828111156122fe5782518255916020019190600101906122e3565b5b50905061230c9190612395565b5090565b61239291905b8082111561238e576000808201600090556001820160006101000a81549073ffffffffffffffffffffffffffffffffffffffff02191690556002820160006101000a81549073ffffffffffffffffffffffffffffffffffffffff02191690556003820160006123859190612434565b50600401612316565b5090565b90565b6123b791905b808211156123b357600081600090555060010161239b565b5090565b90565b6123ee91905b808211156123ea57600080820160006123d99190612455565b6001820160009055506002016123c0565b5090565b90565b61243191905b8082111561242d57600080820160006101000a81549060ff02191690556001820160006124249190612434565b506002016123f7565b5090565b90565b50805460008255906000526020600020908101906124529190612395565b50565b50805460018160011615610100020316600290046000825580601f1061247b575061249a565b601f0160209004906000526020600020908101906124999190612395565b5b50565b6000813590506124ac816134c3565b92915050565b600082601f8301126124c357600080fd5b81356124d66124d182613273565b613246565b915081818352602084019350602081019050838560208402820111156124fb57600080fd5b60005b8381101561252b5781612511888261249d565b8452602084019350602083019250506001810190506124fe565b5050505092915050565b600082601f83011261254657600080fd5b81356125596125548261329b565b613246565b9150818183526020840193506020810190508360005b8381101561259f5781358601612585888261262c565b84526020840193506020830192505060018101905061256f565b5050505092915050565b600082601f8301126125ba57600080fd5b81356125cd6125c8826132c3565b613246565b915081818352602084019350602081019050838560208402820111156125f257600080fd5b60005b8381101561262257816126088882612680565b8452602084019350602083019250506001810190506125f5565b5050505092915050565b600082601f83011261263d57600080fd5b813561265061264b826132eb565b613246565b9150808252602083016020830185838301111561266c57600080fd5b612677838284613470565b50505092915050565b60008135905061268f816134da565b92915050565b6000602082840312156126a757600080fd5b60006126b58482850161249d565b91505092915050565b6000602082840312156126d057600080fd5b600082013567ffffffffffffffff8111156126ea57600080fd5b6126f6848285016124b2565b91505092915050565b60006020828403121561271157600080fd5b600082013567ffffffffffffffff81111561272b57600080fd5b61273784828501612535565b91505092915050565b6000806040838503121561275357600080fd5b600083013567ffffffffffffffff81111561276d57600080fd5b612779858286016125a9565b925050602061278a85828601612680565b9150509250929050565b6000602082840312156127a657600080fd5b60006127b484828501612680565b91505092915050565b60006127c98383612e08565b905092915050565b60006127dd8383612e45565b905092915050565b60006127f18383612ee5565b905092915050565b60006128058383612f48565b60208301905092915050565b61281a81613428565b82525050565b61282981613428565b82525050565b600061283a82613357565b61284481856133c2565b93508360208202850161285685613317565b8060005b85811015612892578484038952815161287385826127bd565b945061287e8361338e565b925060208a0199505060018101905061285a565b50829750879550505050505092915050565b60006128af82613362565b6128b981856133d3565b9350836020820285016128cb85613327565b8060005b8581101561290757848403895281516128e885826127d1565b94506128f38361339b565b925060208a019950506001810190506128cf565b50829750879550505050505092915050565b60006129248261336d565b61292e81856133e4565b93508360208202850161294085613337565b8060005b8581101561297c578484038952815161295d85826127e5565b9450612968836133a8565b925060208a01995050600181019050612944565b50829750879550505050505092915050565b600061299982613378565b6129a381856133f5565b93506129ae83613347565b8060005b838110156129df5781516129c688826127f9565b97506129d1836133b5565b9250506001810190506129b2565b5085935050505092915050565b6129f58161343a565b82525050565b612a048161343a565b82525050565b6000612a1582613383565b612a1f8185613406565b9350612a2f81856020860161347f565b612a38816134b2565b840191505092915050565b6000612a4e82613383565b612a588185613417565b9350612a6881856020860161347f565b612a71816134b2565b840191505092915050565b6000612a89601483613417565b91507f486173206e6f20726967687420746f20766f74650000000000000000000000006000830152602082019050919050565b6000612ac9602383613417565b91507f4261752063752064616e67206469656e2072612c206b6574207468756320747260008301527f756f6300000000000000000000000000000000000000000000000000000000006020830152604082019050919050565b6000612b2f602483613417565b91507f736f206e67756f692074726f6e6720312070686965752062617520717561206e60008301527f68696575000000000000000000000000000000000000000000000000000000006020830152604082019050919050565b6000612b95601a83613417565b91507f4261752063752064616e67206b686f6e6720206469656e2072610000000000006000830152602082019050919050565b6000612bd5601483613417565b91507f4e67756f6920677569206b686f6e672064756e670000000000000000000000006000830152602082019050919050565b6000612c15601a83613417565b91507f4368752074696368206b686f6e672064756f63206261752063750000000000006000830152602082019050919050565b6000612c55601083613417565b91507f536f2063752074726920717561206974000000000000000000000000000000006000830152602082019050919050565b6000612c95601f83613417565b91507f44656c6567617465206163636f756e74206e6f74206973206120766f746572006000830152602082019050919050565b6000612cd5601c83613417565b91507f536f206e67756f692064756f6320626175206b686f6e672064756e67000000006000830152602082019050919050565b6000612d15601983613417565b91507f466f756e64206c6f6f7020696e2064656c65676174696f6e2e000000000000006000830152602082019050919050565b6000612d55601b83613417565b91507f4261752063752064616e67206b686f6f6e6720206469656e20726100000000006000830152602082019050919050565b6000612d95601583613417565b91507f536f20756e67206375207669656e2071756120697400000000000000000000006000830152602082019050919050565b6000612dd5601e83613417565b91507f53656c662d64656c65676174696f6e20697320646973616c6c6f7765642e00006000830152602082019050919050565b6000604083016000830151612e2060008601826129ec565b5060208301518482036020860152612e38828261298e565b9150508091505092915050565b60006040830160008301518482036000860152612e628282612a0a565b9150506020830151612e776020860182612f48565b508091505092915050565b6000608083016000830151612e9a6000860182612f48565b506020830151612ead6020860182612811565b506040830151612ec06040860182612811565b5060608301518482036060860152612ed8828261298e565b9150508091505092915050565b6000608083016000830151612efd6000860182612f48565b506020830151612f106020860182612811565b506040830151612f236040860182612811565b5060608301518482036060860152612f3b828261298e565b9150508091505092915050565b612f5181613466565b82525050565b612f6081613466565b82525050565b6000602082019050612f7b6000830184612820565b92915050565b60006020820190508181036000830152612f9b818461282f565b905092915050565b60006020820190508181036000830152612fbd81846128a4565b905092915050565b60006020820190508181036000830152612fdf8184612919565b905092915050565b6000602082019050612ffc60008301846129fb565b92915050565b6000604082019050818103600083015261301c8185612a43565b905061302b6020830184612f57565b9392505050565b6000602082019050818103600083015261304b81612a7c565b9050919050565b6000602082019050818103600083015261306b81612abc565b9050919050565b6000602082019050818103600083015261308b81612b22565b9050919050565b600060208201905081810360008301526130ab81612b88565b9050919050565b600060208201905081810360008301526130cb81612bc8565b9050919050565b600060208201905081810360008301526130eb81612c08565b9050919050565b6000602082019050818103600083015261310b81612c48565b9050919050565b6000602082019050818103600083015261312b81612c88565b9050919050565b6000602082019050818103600083015261314b81612cc8565b9050919050565b6000602082019050818103600083015261316b81612d08565b9050919050565b6000602082019050818103600083015261318b81612d48565b9050919050565b600060208201905081810360008301526131ab81612d88565b9050919050565b600060208201905081810360008301526131cb81612dc8565b9050919050565b600060208201905081810360008301526131ec8184612e82565b905092915050565b60006020820190506132096000830184612f57565b92915050565b60006060820190506132246000830186612f57565b6132316020830185612820565b61323e6040830184612820565b949350505050565b6000604051905081810181811067ffffffffffffffff8211171561326957600080fd5b8060405250919050565b600067ffffffffffffffff82111561328a57600080fd5b602082029050602081019050919050565b600067ffffffffffffffff8211156132b257600080fd5b602082029050602081019050919050565b600067ffffffffffffffff8211156132da57600080fd5b602082029050602081019050919050565b600067ffffffffffffffff82111561330257600080fd5b601f19601f8301169050602081019050919050565b6000819050602082019050919050565b6000819050602082019050919050565b6000819050602082019050919050565b6000819050602082019050919050565b600081519050919050565b600081519050919050565b600081519050919050565b600081519050919050565b600081519050919050565b6000602082019050919050565b6000602082019050919050565b6000602082019050919050565b6000602082019050919050565b600082825260208201905092915050565b600082825260208201905092915050565b600082825260208201905092915050565b600082825260208201905092915050565b600082825260208201905092915050565b600082825260208201905092915050565b600061343382613446565b9050919050565b60008115159050919050565b600073ffffffffffffffffffffffffffffffffffffffff82169050919050565b6000819050919050565b82818337600083830152505050565b60005b8381101561349d578082015181840152602081019050613482565b838111156134ac576000848401525b50505050565b6000601f19601f8301169050919050565b6134cc81613428565b81146134d757600080fd5b50565b6134e381613466565b81146134ee57600080fd5b5056fea365627a7a723158208b0b178eab8885e5bf91796db7711fedd838e5e3451fe7fb07d496309a9ffd7d6c6578706572696d656e74616cf564736f6c63430005100040",
  "source": "pragma solidity >=0.4.22 <0.7.0;\r\npragma experimental ABIEncoderV2;\r\n/// @title Voting with delegation.\r\ncontract Election {\r\n    uint public numberProposal = 1;  //mt ngi bu ti a  bao nhiu ng c vin\r\n    bool public isVoting = false; // trng thi ca cuc  bu c\r\n\r\n\r\n    struct Voter {//ngi vote (c kh nng vote hoc u quyn vote cho ngi khc)\r\n        uint weight;\r\n        address addr;\r\n        address delegate;  //a ch ca ngi ca ngi y quyn\r\n        uint[] ballots;    // cc v ngi ny ang gi\r\n    }\r\n\r\n    struct Ballot {  // phiu bu\r\n        bool voted;\r\n        uint[] voters; //nhng ngi c bu trong 1 phiu\r\n    }\r\n\r\n    struct Proposal {//ng c vin\r\n        string name;\r\n        uint voteCount; // number of accumulated votes\r\n    }\r\n\r\n    address public chairperson; //ngi t chc(c kh nng cp quyn vote)\r\n    Voter[] public voterArray;  // danh sch ngi c tri (bt u t tr 1)\r\n    mapping(address => uint) public voters;\r\n    Ballot[] public ballots;\r\n    Proposal[] public proposals; //to danh sch ng c vin ( di dng chui dng bytes32)\r\n    Proposal[] public winners;\r\n\r\n    constructor() public {\r\n        chairperson = msg.sender;\r\n        voterArray.push(Voter(0, address(0), address(0), new uint[](0)));  // phn t 0 l b i\r\n    }\r\n\r\n    // bt u cuc bu c\r\n    function start(uint proposalInBallot) public {\r\n        require(proposalInBallot < proposals.length, \"so nguoi trong 1 phieu bau qua nhieu\");\r\n        require(proposals.length > 1, \"So ung cu vien qua it\");\r\n        require(voterArray.length >= 3, \"So cu tri qua it\");\r\n        require(msg.sender == chairperson, \"Nguoi gui khong dung\");\r\n        require(isVoting == false, \"Bau cu dang dien ra, ket thuc truoc\");\r\n        isVoting = true;\r\n        winners.length = 0;\r\n        ballots.length = 0;\r\n        numberProposal = proposalInBallot;\r\n        for (uint i = 1; i < voterArray.length; i++) {\r\n            ballots.push(Ballot(false, new uint[](0)));\r\n            voterArray[i].ballots.length = 0;\r\n            voterArray[i].ballots.push(i - 1);\r\n            voterArray[i].weight = 1;\r\n            voterArray[i].delegate = address(0);\r\n        }\r\n        for (uint i = 0; i < proposals.length; i++) {\r\n            proposals[i].voteCount = 0;\r\n        }\r\n    }\r\n\r\n    // kt thc cuc bu c\r\n    function end() public {\r\n        require(msg.sender == chairperson, \"Nguoi gui khong dung\");\r\n        require(isVoting == true, \"Bau cu dang khoong  dien ra\");\r\n        isVoting = false;\r\n        uint value = winningProposal();\r\n        for (uint i = 0; i < proposals.length; i++) {\r\n            if (proposals[i].voteCount == value) {\r\n                winners.push(proposals[i]);\r\n            }\r\n        }\r\n    }\r\n\r\n\r\n    // Delegate your vote to the voter `to`\r\n    function delegate(address to) public {\r\n        require(isVoting == true, \"Bau cu dang khoong  dien ra\");\r\n        // assigns reference\r\n        Voter storage sender = voterArray[voters[msg.sender]];\r\n        require(to != msg.sender, \"Self-delegation is disallowed.\");\r\n        require(voters[to] != 0, \"Delegate account not is a voter\");\r\n        while (voterArray[voters[to]].delegate != address(0)) {\r\n            to = voterArray[voters[to]].delegate;\r\n            // We found a loop in the delegation, not allowed.\r\n            require(to != msg.sender, \"Found loop in delegation.\");\r\n        }\r\n        sender.delegate = to;\r\n        Voter storage delegate_ = voterArray[voters[to]];\r\n        // ngi y quyn c th s dng ton b s phiu sender c\r\n        for (uint i = 0; i < sender.ballots.length; i++) {\r\n            bool exist = false;\r\n            for (uint j = 0; j < delegate_.ballots.length; j++) {\r\n                if (sender.ballots[i] == delegate_.ballots[j]) {\r\n                    exist = true;\r\n                    break;\r\n                }\r\n            }\r\n            if (!exist) {\r\n                delegate_.weight += 1;\r\n                delegate_.ballots.push(sender.ballots[i]);\r\n            }\r\n        }\r\n    }\r\n\r\n\r\n    // Give your vote (including votes delegated to you)\r\n    function vote(uint[] memory array, uint ballotToVote) public {\r\n        require(isVoting == true, \"Bau cu dang khong  dien ra\");\r\n        uint count = ballotToVote;\r\n        Voter storage sender = voterArray[voters[msg.sender]];\r\n        sender.weight = getRemainBallot();\r\n        // lay so luong phieu con dung duoc\r\n        require(sender.weight > 0 && sender.weight >= count, \"Has no right to vote\");\r\n        require(array.length == numberProposal, \"So nguoi duoc bau khong dung\");\r\n        for (uint i = 0; i < sender.ballots.length; i++) {\r\n            Ballot storage temp = ballots[sender.ballots[i]];\r\n            if (!temp.voted && count > 0) {\r\n                temp.voted = true;\r\n                count --;\r\n                sender.weight --;\r\n                temp.voters = array;\r\n            }\r\n        }\r\n        // cng phiu bu cho cc ng c vin\r\n        for (uint j = 0; j < array.length; j++) {\r\n            proposals[array[j]].voteCount += ballotToVote;\r\n        }\r\n        // tnh li weight cho cc voter\r\n        for (uint i = 0; i < voterArray.length; i++) {\r\n            uint weight = 0;\r\n            for (uint j = 0; j < voterArray[i].ballots.length; j++) {\r\n                if (!ballots[voterArray[i].ballots[j]].voted) {\r\n                    weight++;\r\n                }\r\n            }\r\n            voterArray[i].weight = weight;\r\n        }\r\n    }\r\n\r\n    // m s phiu cn li ca 1 ngi c tri\r\n    function getRemainBallot() public view returns (uint) {\r\n        Voter storage sender = voterArray[voters[msg.sender]];\r\n        uint count = 0;\r\n        for (uint i = 0; i < sender.ballots.length; i++) {\r\n            if (!ballots[sender.ballots[i]].voted) {\r\n                count++;\r\n            }\r\n        }\r\n        return count;\r\n    }\r\n\r\n    // tm s phiu ca ngi c bu nhiu nht\r\n    function winningProposal() private view returns (uint){\r\n        uint winningVoteCount = 0;\r\n        for (uint p = 0; p < proposals.length; p++) {\r\n            if (proposals[p].voteCount > winningVoteCount) {\r\n                winningVoteCount = proposals[p].voteCount;\r\n            }\r\n        }\r\n        return winningVoteCount;\r\n    }\r\n\r\n\r\n    // to tt c cc c tri\r\n    function setVoter(address[] memory addresses) public {\r\n        require(msg.sender == chairperson, \"Nguoi gui khong dung\");\r\n        voterArray.length = 1;\r\n        for (uint i = 0; i < addresses.length; i++) {\r\n            require(addresses[i] != chairperson, \"Chu tich khong duoc bau cu\");\r\n            voterArray.push(Voter(0, addresses[i], address(0), new uint[](0)));\r\n            voters[addresses[i]] = i + 1;\r\n        }\r\n    }\r\n\r\n    // to cc ng c vin\r\n    function setProposal(string[] memory names) public {\r\n        require(msg.sender == chairperson, \"Nguoi gui khong dung\");\r\n        proposals.length = 0;\r\n        for (uint i = 0; i < names.length; i++) {\r\n            proposals.push(Proposal({name : names[i], voteCount : 0}));\r\n        }\r\n    }\r\n\r\n\r\n    function getProposal() public view returns (Proposal[] memory) {\r\n        return proposals;\r\n    }\r\n\r\n    function getVoters() public view returns (Voter[] memory) {\r\n        return voterArray;\r\n    }\r\n\r\n    function getMyself() public view returns (Voter memory) {\r\n        return voterArray[voters[msg.sender]];\r\n    }\r\n\r\n    function getBallots() public view returns (Ballot[] memory) {\r\n        return ballots;\r\n    }\r\n\r\n    function getWinner() public view returns (Proposal[] memory) {\r\n        return winners;\r\n    }\r\n}",
  "sourcePath": "D:/project/election-ethereum/contracts/src/Election.sol",
  "compiler": {
    "name": "solc",
    "version": "0.5.16+commit.9c3226ce.Emscripten.clang"
  },
  "schemaVersion": "3.3.0",
  "updatedAt": "2020-10-13T11:02:27.426Z",
  "networkType": "ethereum",
  "devdoc": {
    "methods": {},
    "title": "Voting with delegation."
  },
  "userdoc": {
    "methods": {}
  }
}